:020000041000EA
:10000000002008205D0100101301001015010010F0
:100010001101001011010010110100101101001058
:100020001101001011010010110100101701001042
:100030001101001011010010190100101B01001026
:100040001D0100101D0100101D0100101D010010F8
:100050001D0100101D0100101D0100101D010010E8
:100060001D0100101D0100101D0100101D010010D8
:100070001D0100101D0100101D0100101D010010C8
:100080001D0100101D0100101D0100101D010010B8
:100090001D0100101D0100101D0100101D010010A8
:1000A0001D0100101D0100101D0100101D01001098
:1000B0001D0100101D0100101D0100101D01001088
:1000C0001D0100101D0100101D0100101D01001078
:1000D0001D0100101D0100101D0100101D01001068
:1000E0001D0100101D0100101D0100101D01001058
:1000F0001D0100101D0100101D0100101D01001048
:100100001D0100101D0100101D0100101D01001037
:1001100000BE00BE00BE00BE00BE00BEEFF3058004
:10012000103800BEF2EB8871B89C0010E49C0010FF
:10013000A801001090A31AE7D3DEFFFF42012110AF
:10014000FF010000E4A80000793512AB4FF0000079
:100150002049086006C881F3088810474FF05040D6
:10016000006810B14FF00000F2E70FA40ECC002998
:1001700002D000F015F8F9E71749184A002000E00E
:1001800001C19142FCD1002080F30A8814498847BC
:10019000144988471449884700BEFDE701C901C2D8
:1001A0009A42FBD3704700BFE49C0010200100205E
:1001B000580E00201CAA0010000008200000082093
:1001C0001CAA0010001008200010082000000000E9
:1001D0007047000008ED00E0580E002024210020A8
:1001E00089400010ED05001081400010F8B500BFF7
:1001F000064B0749C91A891048BF0131491003D07D
:10020000044B0BB101481847704700BF580E00203F
:10021000580E00200000000008B5054B1BB1054931
:100220000548AFF30080BDE80840FFF7E1BF00BF1D
:1002300000000000741F0020C08C0010704700BF39
:100240004FF0321130B500229FED155B4FF0C80E14
:100250004FF0640C00209FED146B9FED157B164B47
:10026000164D59601649174C1960174B174983F8FA
:1002700028200132322A83ED005B83ED046B83ED8D
:10028000067BC3E90201C3E9080125F802EF24F85F
:1002900002CF03F13003EAD130BD00BFAFF30080DD
:1002A0000000000000006940000000000000004065
:1002B000000000000000F83FC41F00204A2000207A
:1002C000CC910010AE200020580E002000005940B4
:1002D000704700BF10B50B4C82B06369984700218E
:1002E000204600F019FB3220074B0090074A2046B9
:1002F000074900F023FB204602B0BDE8104000F0A3
:1003000013BB00BF441F0020B02000204C20002061
:10031000C41F0020000000002DE9F04F524B85B0B3
:10032000CDE90201DFF850A1DFF850B1019352E0AE
:100330000022DAE902014D4B02F09CFA002860D15C
:10034000DAE900010022002302F080FA002866D1D9
:10035000DAE90289002200234046494602F076FA93
:10036000002868D1DAE90645DAE90823DDE9020167
:1003700002F08AF9DAE9042306460F4602F084F90E
:10038000DAE9002302F058F922462B4604460D46CE
:100390003046CAE90045394602F076F942464B46F6
:1003A00002F04AF902460B462046294614461D46ED
:1003B000CAE9024502F012FA019B294623F8020F0E
:1003C0002046019302F00AFA294B0AF1300A9A45B5
:1003D0002BF8020F3FD0DAE900010022254B02F092
:1003E00049FA0028A4D004F0D9FA02F0D3F91CA3EA
:1003F000D3E9002302F06EF901F10042CAE90402D8
:1004000096E704F0CBFA02F0C5F915A3D3E900236F
:1004100002F060F901F10042CAE9060290E704F037
:10042000BDFA02F0B7F90EA3D3E9002302F052F9A6
:10043000CAE904018CE704F0B1FA02F0ABF908A3B1
:10044000D3E9002302F046F9DAE9028904460D46B1
:10045000CAE9064588E705B0BDE8F08FAFF3008034
:100460000000C0FFFFFFDF414A20002000006E4077
:10047000B817002000007440580E0020AE20002065
:1004800041F209634FF4F07206204FF4207130B549
:100490001F4D8BB02B811F4B6A612B621E4A1F4B75
:1004A000A8721F482961EA621E491F4AAB621F4CAD
:1004B0001F4B6862284629636A60EB602C6000F07D
:1004C000C5F8F02201234FF4A0711A4800F0FCF99E
:1004D000684608F0F9F8184B18491948C91A079BDB
:1004E000C91A03F0C1FF0021124800F015FA0021DB
:1004F000104A284600F0B8F8284600F0B3F828461D
:1005000000F00EF90B480BB0BDE8304000F0F6B932
:10051000041F002041020010D5020010D10200107B
:100520003D020010190300100A1C0B08008008404F
:1005300040420F00441F002024210020000008201A
:10054000C08C00102DE9F84F012001F0D3FC834648
:10055000022001F0CFFC8246032001F0CBFC814653
:10056000092001F0C7FC80460A2001F0C3FC0746C1
:100570000B2001F0BFFC06460C2001F0BBFC054639
:100580000D2001F0B7FC04465946104803F06CFFFB
:1005900051460F4803F068FF49460E4803F064FFD8
:1005A00041460D4803F060FF39460C4803F05CFFFC
:1005B00031460B4803F058FF29460A4803F054FF20
:1005C0002146BDE8F84F084803F04EBFD08C00101C
:1005D000E48C0010F88C00100C8D0010208D0010A1
:1005E000348D0010488D00105C8D001000B50F2078
:1005F00087B001F07FFE124805AB04AA03A901F001
:1006000065FDB0B90F4C104D012223460021062094
:10061000009401F083FB012200212346072000956E
:1006200001F07CFB03F058FEFFF78CFFFFF728FF7B
:10063000FEE70398DDE9041201F086FCE2E700BF63
:1006400078CE0400C084C61260426309002210B54F
:10065000036A82860446984718B9636ABDE8104069
:10066000184710BD0020704738B58369012904463A
:1006700019701BD0022908D049B349221E491F48CE
:1006800003F0F2FE0024204638BD40221A491C48DF
:1006900003F0EAFE204600F02FFB04460028F2D0CB
:1006A00043221549174803F0DFFEECE729221249DF
:1006B000154803F0D9FE204600F054FB04460028FC
:1006C000E1D02C220C49114803F0CEFEDBE71546A1
:1006D000094935220E4803F0C7FE2046294600F09E
:1006E00083F9044610B90B4B6B61CBE73922024901
:1006F000094803F0B9FEC6E7708D00102C8F00107A
:10070000B48E0010E88E0010C88D0010008E00100E
:10071000448E0010D1090010748E001000000000FB
:100720002DE9F04F83B0834601F02CFA002900F048
:10073000B6804FF47A72002308F086FA02F02AF8A5
:100740005B4B002201F0C6FF04460D4601F01AFA89
:100750009FED557B8DED007B59EC178B01F012FA64
:100760004FF0000A0346002900F094804FF47A729B
:10077000002308F069FA02F00DF800224C4B01F05A
:10078000A9FF22462B4606460F4601F069FF0446A4
:100790000D4622462B464046494601F04DFF224673
:1007A0002B4680468946DDE9000101F045FF0446FD
:1007B0000D464FF01132404649463E4BCDE90045CB
:1007C00002F06CF8002855D04FF0113240464946EF
:1007D000384B01F045FFDBF83030804689464FF05A
:1007E000113034499847002220462946324B02F006
:1007F00041F818B3534683223049314803F034FEA0
:100800004FF01132404649462A4B02F047F88246E3
:1008100060B3404649464FF01132264B01F020FFAD
:10082000DBF83030804689464FF011302149984737
:100830009FED1D7B4FF0000A8DED007B4FF01132D4
:10084000404649461B4B02F029F898B140464946BC
:100850004FF01132174B01F003FFDBF830308046C8
:1008600089464FF0113013499847E7E79FED0E7B1B
:100870008DED007BDBF82C300E494FF0113098479E
:1008800001F080F934463D4603460AF1010A002989
:100890007FF46CAF0B4AA2FB033080096BE74FF487
:1008A0007A72B0FBF2F049E700000000000000009F
:1008B00000408F401111913F0000F03F708D0010FB
:1008C000608F0010D34D6210F8B50E46044606FB4B
:1008D00002F7C0E90362836101213846A7601D4623
:1008E00002F008F8606015B920600020F8BD012111
:1008F000384601F0FFFF20600020F8BD10B5044627
:10090000406802F017F8A3690BB9002010BD2068F9
:1009100002F010F8002010BD08B5D0E9010207F080
:10092000DDFE002008BD00BF10B5044643699847AE
:10093000D4E900230020C4E9003210BD2DE9F04FB6
:10094000B1F804C0CE8898460CFB06F5BDF82430FB
:10095000002D39D09246002403E00134A4B2AC4209
:1009600032DA0A6812F80490B9F1000FF5D0002BC2
:10097000F3D0B4FBFCF70CFB1747B4FBF6FB0022EB
:10098000BFB202E00D6815F804903AF812C0C568CD
:1009900038F812E0ACEB070C0132AC45D2B2DE44C1
:1009A00007D20669B64504D2466805FB0E6505F810
:1009B0000C909A42E6D3CE88B1F804C001340CFB07
:1009C00006F5A4B2AC42CCDB0020BDE8F08F00BF3E
:1009D000044A1368092B03DD20BF1368092BFBDCD5
:1009E000704700BF680800202DE9F84F07200E4629
:1009F00004F078F800224FF0FF309C4B9C491A60BD
:100A0000022208609B49DFF8E0920A604FF0000183
:100A10002D2340F20D27CA46974ADFF8D0B2117055
:100A2000964A974D1360974BAE461F60BBE80F0088
:100A3000AAE80F009BE8030041F210038AE80300D4
:100A40004FF4835241F2B021DFF8A482C9F800309C
:100A5000C9F80820C9F81010B8E80F00AEE80F0078
:100A600098E8030004238EE80300874C874841F28E
:100A7000B0214FF483520360A44641F21003844F27
:100A800029612B60AA600FCFACE80F0041F2100380
:100A90004FF48352236041F23003A26097E80700CD
:100AA0008CE8070023614FF40A53A361B369002B5C
:100AB00000F0D480B368774A3168B3F5963F11608F
:100AC00008D04FF4A8727449744803F0CDFC01209B
:100AD000BDE8F88F002400214FF48062704807F0D1
:100AE000FDFD70497048C4F38205C5EB0525A0FBE8
:100AF0000536C4F3811204F0030302EB820203EB18
:100B0000830302EB021203EB0313AD1BD2B2DBB281
:100B100006EB550643EA0243B608013443EA0623CE
:100B2000FF2C41F8043FDED16FF07F425C4B41F275
:100B30003840C3F8FC2301F0C1FE044608275B4B94
:100B4000514E186000F61C2C0FCE0FC496E807001B
:100B5000A6F1100E84E80700BEE80F00ACE80F0015
:100B600096E80700524D8CE807000A2000212F600C
:100B700000F0AAFE4F4B504A1F609368DB4313F00E
:100B80000803FAD10A2000211C4600F09DFE4FF018
:100B9000012C4FF480704FF400374FF4403640F68C
:100BA0000A3241F214510C25444BDFF848E1C3F8F6
:100BB00028E0C3F824C01C60414C1C605F609E604C
:100BC000D86000F5803018615A6102F580329A6170
:100BD00002F60A22D9611A622846002100F004F9BF
:100BE00028460121013500F031F9142DF4D13548A2
:100BF00003F0BAFB4FF0A0440623334A3349344E86
:100C0000344DC4F8009034486260A3602661C4F893
:100C100040906264A3642565C4F88090C4F8842081
:100C2000C4F88830C4F8901003F09EFB07230C2012
:100C3000C4F800342949C4F82C34C4F8243400F032
:100C4000D3F901210C2000F0B9F901232448C4F89C
:100C5000503403F089FB0020BDE8F88F40F24312C6
:100C60000D49204803F000FC31E700BFC81A0020FE
:100C70006C080020680800201D210020F81F0020BB
:100C800034200020FC1F002000200020701F0020C6
:100C9000909B0010601F0020848F00102C9000108B
:100CA000001B0020FC1A0020254992246C1F002004
:100CB00000200240003002400000024000000C40D2
:100CC000030205508890001004006050190068006D
:100CD000192068001940680094900010210100203C
:100CE000AC900010E88F00101C200020C49B001066
:100CF000AC9B0010E0E8F00008B505F07FFB16495A
:100D0000164803F067FE01210A2000F06DF801216A
:100D10000B2000F069F801211C2000F065F80F4855
:100D200003F0D2FE01460E4803F09EFB00204FF474
:100D30007A7105F0A9FC1F2007F082F91F2007F047
:100D40007FF9642005F0B0FB40F2FF7007F078F9FE
:100D5000642005F0A9FBF1E7A0ACB90300800840CE
:100D6000BC90001070B504461C49006803F032FEC8
:100D70006079012100F038F82079012100F034F881
:100D80000121A07900F030F8154803F09DFE0146DE
:100D9000144803F069FB607A00F068F84FF0010531
:100DA000637A45EC443045EC4030E07900F05EF881
:100DB000E37945EC44304FF0000646EC4030207AB1
:100DC00000F054F8237A45EC443046EC403005F00E
:100DD000DDF8002005F06EFA002070BDC00E16028E
:100DE00000800840BC90001010B44FF480740C4B8D
:100DF00053F8202003EB8003C00082F0400200F192
:100E0000804003F5805C02F0C00200F5203003F55D
:100E10004053CCF8002041601C605DF8044B7047E3
:100E20000480034010B4084CC90041EA820154F820
:100E3000202004EB8003514003F5805301F00C01A6
:100E40005DF8044B1960704704800340064B53F86B
:100E5000202003EB800382EA011202F0300203F546
:100E600080531A60704700BF0480034030B44FF0D5
:100E7000000343EC440043EC400005254FF480742C
:100E80000B4BC20053F8201003EB800081F04001AF
:100E900002F1804303F5203301F0C00200F58051D8
:100EA00000F540500A605D60046030BC704700BFD0
:100EB000048003400FB400B583B0049C074803F0DE
:100EC00053FA3CB105A92046019103F0A9F8044862
:100ED00003F04AFA012003F0BBF800BFCC900010E9
:100EE000DC90001070B58646EFF3108572B6124C98
:100EF000D4E8CF6F0120002EFAD1C4E8460F002EAF
:100F0000F6D1BFF35F8F4FF0010CC80801F0070363
:100F10000CFA03F31EF800C01CEA030608D14CEAE1
:100F2000030C0EF800C0C4E88F6F85F3108870BD05
:100F30001046FFF7BFFF00BFB31A0020044A107825
:100F4000431CDBB2182B28BF10231370704700BF5F
:100F5000700800204FF0E022936843F00053936044
:100F6000704700BF0021044B03F12002C3E88F1F2C
:100F700001339342FAD17047A81A00204FF0E023C2
:100F80004FF08032C3F80024C3F80424C3F80824C7
:100F9000C3F80C24C3F81024C3F81424C3F818248D
:100FA000C3F81C24C3F82024C3F82424C3F828243D
:100FB000C3F82C24C3F83024704700BF012300F08D
:100FC0001F029340400941B1800000F1604000F5EC
:100FD0006140C0F8803103607047024A203042F817
:100FE0002030704700E100E0F8B50D46EFF31087C0
:100FF00072B6124ED6E8CF2F0123002AFAD1C6E8E6
:10100000423F002AF6D1BFF35F8F0D4B00F1100471
:101010009B680C4A53F82430934203D0994201D084
:1010200001F0F8F9064B9B6843F82450BFF35F8F3B
:101030000023C6E88F3F87F31088F8BDB11A00205F
:1010400000ED00E01D0100102DE9F04F83B0EFF33B
:10105000108A72B6714ED6E8CF2F0123002AFAD13A
:10106000C6E8423F002AF6D1BFF35F8F6C4B00F118
:1010700010089B686B4A53F82850954245D08D4222
:101080000C4650D0684FEB1B2F2B3ED801214FEA66
:1010900050194FEA890909F1604909F5614900F0E1
:1010A0001F0301FA03F0D9F80030C9F8800000EA04
:1010B000030BBFF35F8FEFF30581C9B2002934D072
:1010C000884505D0CDE9001001F0A4F9DDE9001054
:1010D00025F0010EDEF808C0644505D189E0D3F89B
:1010E00008C0644531D09E469EF9062002EB4203BB
:1010F000002A07EB8303F2DA644561D0BBF1000FED
:1011000020D0C9F88001C9F80000454B9B6843F81E
:101110002850BFF35F8F0023C6E88F3F8AF3108803
:1011200003B0BDE8F08F1546EFE725F0010EDEF8BD
:1011300008C06445D8D19EF906407346002C08DAF1
:10114000154646E0C9F88000DFE793F90640002C19
:1011500037DB04EB440C07EB8C0C9CF80710DCF835
:101160000820D9719A609CF906206100002A9A71C2
:101170003DDBBCF804E05FEA4E5E05D50EF5FF1ED0
:101180000EF5FF5E0EF11F0E6FF0070C0A194FEA05
:101190006E5E920002EB4E0208323A44ACEB030C56
:1011A0006244C2F34A026FEAC2426FEAD2429A80B4
:1011B0001E4B21441A7807EB81011C708A719DE750
:1011C0007346D9B9FF228EF806204BF60152AEF8CD
:1011D0000420164C4AF6AA2294F800C01946C91BEE
:1011E00049414A43120D83F806C0227086E7104A2F
:1011F000DDE79EF906407346002CAADA0D4A0E4C34
:10120000D21A083AC2F30A316FEA01516FEA11515A
:1012100044EA5202DA80998070E700BFB11A0020D8
:1012200000ED00E01D010010740800201F210020C7
:1012300001BDFFFFAE08002000F8FFFFF0B5EFF39F
:101240000585EDB2EFF3108C72B62649D1E8CF2FA9
:101250000123002AFAD1C1E8423F002AF6D1BFF3A8
:101260005F8F214E40F0010EB4684AF6AA2354F86D
:1012700025701E4A0446A41A644163431B0D77453A
:101280005BB21BD092F906409C421CD092F91240EE
:101290009C4223D092F91E409C4221D092F92A40D0
:1012A0009C4208BF03240FD0114A00241578137004
:1012B0008571C1E88F4F8CF31088F0BDB2680D4C7A
:1012C00042F82540F0E7002404EB440402EB8402DA
:1012D000FF2494714BF601549480E5E70124F3E771
:1012E0000224F1E7B11A002000ED00E074080020AC
:1012F0001F2100201D010010014B0B4403607047AB
:10130000A81A002070B5104C104DAC420ED2FF262A
:10131000236863B1FFF712FE01462046FFF7ECFF9A
:10132000A680BFF35F8F0834AC42F1D370BDFFF7E6
:1013300005FE01462046FFF7DFFF2671BFF35F8FF2
:101340000834AC42E4D370BD480E0020580E002093
:101350000D4B1A68EFF3108172B6D2E8CFCF01209F
:10136000BCF1000FF9D1C2E84C0FBCF1000FF4D171
:10137000BFF35F8F00221B68C3E88F2F81F31088B3
:1013800040BF002000217047C01F00200000000067
:101390002DE9F04F2DED028B85B0EFF30583DBB225
:1013A000103B9A0818BF01224FF0010103F0030B14
:1013B00018BFAF4DAF4B08BFAF4D0BEB820253F8D8
:1013C000226001FA0BF205F541539FEDA78B0192C4
:1013D0005A602FE0B3881C0440F19380B379002B4E
:1013E00040F0DD80B6F90820002AC0F21E81736942
:1013F00002EB420203EBC203D3E90247B7F1FF3F1E
:1014000008BFB4F1FF3F0ED005EB8B01AB6A0A6950
:10141000D21AE31A934205D301232A6A03FA0BF383
:10142000134200D10C61284600F0A4FBA042B94150
:10143000C0F2FB80B6F90830019A002B0093EA63F2
:10144000C8DBD6F8148003EB4309284608EBC9072C
:10145000D7E9024A00F08EFBA04271EB0A01B9DB2A
:10146000BAF1000FC0F2C380D7E90431834A934236
:1014700000F0ED807A88B6F9080092B242EA0040A6
:10148000984702460B4652EA030100F0B080002B59
:1014900080F2D180B4EB020E6AEB030A38F93930DE
:1014A000C7E902EA002B95DB716903EB430201EB0C
:1014B000C202D2E90270BE457AEB000C4FEA430249
:1014C00088DBB4462CF8083F06E003EB430001EB51
:1014D000C0005A00D0E90270BE451A447AEB000001
:1014E00001EBC20404DB31F93230A446002BECDA04
:1014F00028F83930009BACF80030B3881C043FF565
:101500006DAF3369EFF3108272B6D3E8CF0F0121CC
:101510000028FAD1C3E8401F0028F6D1BFF35F8F3F
:101520004FF6FF74B0880023316900B2B480C1E87F
:101530008F3F82F310889842FFF650AF0746A946C6
:10154000746906F1080807EB470E04EBCE03D3E9F4
:101550000250B6F90830C446002B13DBB2460097A0
:1015600004E034F936309446002B09DB03EB4306E4
:1015700004EBC602D2E90271BD4270EB0101F0DA60
:101580005646009FACF8007034F93E7024F83E30A7
:10159000002FD8DAB3794D46002B3FF423AF002358
:1015A000B371B6F9083006F10808581C3DD01A4648
:1015B000776903E08046591C3FF416AF03EB430103
:1015C00007EBC100B0F802C01C461CF4004F9E4659
:1015D00037F93130EED0944280ED028B05D0A8F877
:1015E0000030328927F8312034817246E3E738F839
:1015F000393033813369EFF3108272B6D3E8CF0FFD
:1016000001210028FAD1C3E8401F0028F6D1BFF31A
:101610005F8F7388316928F83930009B738000230D
:10162000C1E88F3F82F31088D4E640BF05B0BDEC1F
:10163000028BBDE8F08F2846CDE9022300F09AFA2C
:10164000029A039B10EB020E43EB010A26E70846C1
:101650000B69029198470028C9D00299D1E900236B
:1016600011E700BFAFF30080FFFFFFFFFFFFFFFFA9
:1016700000800B408C1F002000000B4091130010D5
:101680002DE9F84F364C25692DB1BDE8F84F0A21F8
:101690003448FFF731BEDFF8E4800321404600F014
:1016A00057FA0326C4F80C80FFF748FC4FF0504C63
:1016B0002D4B267003442361DCF800300F2163704A
:1016C000636961801D834FF00405A3F878504FF0E3
:1016D0000505A3F890504FF00605A3F8A8504FF069
:1016E00007050E214FF6FF7208274FF00A0EA3F8E8
:1016F000C0504FF001094FF00C0C4FF0020B4FF0AF
:10170000090A0D204FF00B05A3F868111749A280B4
:10171000A3F808E1A160A3F848B0A3F8F0A0A3F8EB
:101720002051A3F838C1A3F85001A3F83090A3F8D2
:101730006060A3F8D8701A800D4B3046C8F820704E
:101740000C49DC60FFF750FC49463046FFF736FC99
:10175000094B0A211F640348BDE8F84FFFF7CCBDD1
:10176000BC080020C01F0020A81A0020FFFF1000A6
:101770008C1F00209113001000200B4000000B4034
:101780000146F0B50069EFF3108772B6D0E8CF5F7D
:101790000124002DFAD1C0E8454F002DF6D1BFF34A
:1017A0005F8FB1F902E04C690EEB4E0CBEF1000FF9
:1017B0004FEACC05086904EBCC0C3CDB665B4E8041
:1017C0000026C0E88F6F87F31088BCF80200CCE9D0
:1017D00002230130C0F30E00012838BF0120059B11
:1017E000ACF80200CCF81030069B40EA0E40CCF872
:1017F00014300B69EFF3108272B6D3E8CFCF012714
:10180000BCF1000FF9D1C3E84C7FBCF1000FF4D15B
:10181000BFF35F8F8B886353A1F804E00B69C3E8C3
:101820008F6F82F310880122CB68097803F501538A
:101830008A405A60F0BD0023C0E88F3F87F31088CC
:101840004FF0FF30F0BD00BF03464089B0EB214FA1
:1018500037DD58690A1402EB420210B500EBC200F2
:101860001C69EFF3108C72B6D4E8CFEF0122BEF101
:10187000000FF9D1C4E84E2FBEF1000FF4D1BFF331
:101880005F8F428889B292B28A4207D000221B69D8
:10189000C3E88F2F8CF31088002010BD42F4004263
:1018A00042800121002218699971C0E88F2F8CF3C2
:1018B00010881C78DA68084602F50153A140596087
:1018C00010BD0020704700BF2DE9F04182B00446F2
:1018D0000E4600F057F94FF0FF326FF00043241826
:1018E00046EB0106A24273EB06013CBF14461E46BE
:1018F000A51F46F1FF37AC4276EB07033CBF00253E
:101900002F4600F03FF9281A67EB010C01287CF103
:10191000000C06DA2046314602B0BDE8F04100F086
:1019200069B900F02FF9854267EB010100290ADB54
:101930000021174B2A46009316483B460191FFF7BA
:101940001FFF0130E6D04FF0000C134A1349536AD1
:101950009F4204D8906AA842DCD29F42DAD10B6839
:10196000EFF3108072B6D3E8CF8F5FF0010EB8F1BD
:10197000000FF8D1C3E848EFB8F1000FF3D1BFF37F
:101980005F8F0B68C3E88FCF80F3108820BFDEE73E
:1019900051130010BC08002000000B40C01F0020A5
:1019A0002DE9F04182B0064600F0ECF84FF47A736E
:1019B00004464FF0FF306FF00042E6FB0341A042C7
:1019C00072EB01033ABF044615460D46A61F45F1CA
:1019D000FF37B44275EB07033CBF0026374600F0E3
:1019E000D1F8301A67EB0101012871F1000106DA24
:1019F0002046294602B0BDE8F04100F0FBB800F0F7
:101A0000C1F8864267EB010100290ADB0021174B70
:101A10003246009316483B460191FFF7B1FE013074
:101A2000E6D04FF0000C134A1349536A9F4204D882
:101A3000906AB042DCD29F42DAD10B68EFF310809B
:101A400072B6D3E8CF8F5FF0010EB8F1000FF8D176
:101A5000C3E848EFB8F1000FF3D1BFF35F8F0B6815
:101A6000C3E88FCF80F3108820BFDEE7511300104A
:101A7000BC08002000000B40C01F00202DE9F043EF
:101A800006460D4683B0EFF30584E4B23CB12D4B1E
:101A90005A6AAA421CD2002003B0BDE8F0832A4F44
:101AA000D7F80C9097F80080484600F063F808F1EA
:101AB000040859F828301B1A301A65EB01019842C6
:101AC00071F1000110DB20BF1E4B5A6AAA42E2D31B
:101AD00014BF012400249B6AB34234BF204644F063
:101AE000010003B0BDE8F08300F04CF8864265EBDE
:101AF0000101002914DB154B3846CDE9003432468C
:101B00002B46FFF73DFE011E0ADD0E4B5A6AAA4224
:101B100016D39B6AB34211D30B48FFF795FEB6E785
:101B2000084B5C6AAC42B6D3641B18BF01249B6AA5
:101B3000B34234BF204644F00100ADE7AA42EBD1E6
:101B400020BFE9E700000B40BC0800205113001043
:101B500010B4054B054C064AA04214BF1846581C49
:101B60005DF8044BFFF7BEB9D41A002000800B408B
:101B7000E09000100346416A0A46986A596A8A4210
:101B8000FAD17047034B596A0A46986A596A9142DA
:101B9000FAD1704700000B4030B4154A536A9C4696
:101BA000946A536A6345FAD1021959414FF000050E
:101BB00028BF01250E4B5B6AB5B15A1C08BF1A46F7
:101BC00008D04FF0FF310A460948436A8B42FCD3E4
:101BD0008B4207D1064902E0486A984202D1886ADE
:101BE0009042F9D330BC70479942EDD8F0E700BF7E
:101BF00000000B40074A536A9942FCD8994207D12A
:101C0000044B02E05A6A914202D19A6A9042F9D892
:101C1000704700BF00000B40F8B5054606200E4691
:101C200000F062F9002842D0354A3648954214BF88
:101C30004FF080624FF00062334B344902601A600B
:101C40008C6832EA0404FBD12D4B4FF48071EB1AFF
:101C5000B3FA83F32E4A5B09062022F8131000F032
:101C600043F9C300B3FBF6F30133DA0920D1402670
:101C700001216962AA622F6BFB0722D42B46002246
:101C800053F82C1F062003F5805422602F6300F0C8
:101C90002BF940F2013103228000B0FBF6F0EB6A31
:101CA00083F0700303F07E0323602963AA64F8BD08
:101CB0004FF6FE718A421BD922464FF6FF71154E30
:101CC000D7E740F2013205F540531A636B6AAC6AFC
:101CD000062004EB831400F007F90F4BA402A3FBCA
:101CE0000023DB0A0021B4FBF3F0FFF755FFC5E743
:101CF000C3F34503114603EB82161A46B9E700BF4A
:101D000000800740002002400030024000000240F6
:101D1000F01F0020C0FF3F00757B2B8F2DE9F0479F
:101D2000089C9C4272D806464FEA13491D040F4690
:101D30000023904628462246494606F085FF06EBDA
:101D40004604A40004F1804482460B4604F5803426
:101D5000002936D128464946524606F075FF636889
:101D6000311F9A45C9B288BFC4F804A00129D146E1
:101D700005462ED94FF40060264A04F540531860FA
:101D800052F8260038B15369B3FBF0F3013303EB8B
:101D90004303033BFDD2236804F5805083EA4813D4
:101DA00003F0E0030129036025D942F826504FF4DF
:101DB000006204F500531A600120C4F80490BDE8E5
:101DC000F087311FC9B201294D4663684FF0000901
:101DD000D0D8012FCED1032204F540531A60A36856
:101DE000DB07FCD5236804F5805083EA481303F031
:101DF000E003084A036001212368B9407B4003F0F7
:101E000003030360A3680B42FCD0CEE70020BDE8CB
:101E1000F08700BFD81A002000EB400C4FEA8C0C72
:101E20000CF1804C0CF5803CF0B51646DCF8042033
:101E3000051FB2F5803F38BF4FF48032EDB238BF96
:101E4000CCF80420012D2AD94FF40067254C0CF55D
:101E50004052176054F82020B2B9DCF80020012D60
:101E600082EA461202F0E0020CF5805632602AD96E
:101E70004FF4006144F820304FF480330CF50052E9
:101E80001160CCF80430F0BD6769B7FBF2FE0EF1CB
:101E9000010E0EEB4E0EBEF1030EFCD2DDE7012962
:101EA000D2D103240CF540521460DCF80820D2078C
:101EB000FBD5DCF800200B4C82EA461202F0E0026F
:101EC0000CF5805632600122DCF800504D4005F0E0
:101ED0000305356002FA01F1DCF808200A42FBD064
:101EE000C6E700BFD81A0020014B53F82000704706
:101EF000D81A002030B4114AD2F8A43013F48073F9
:101F0000FAD10F490F4C09690A25A4FB01414FF092
:101F1000FF348909C2F88C100849C2F89C50C2F8F5
:101F20009030C2F89440C2F8A000D1F8A430DB068B
:101F3000FBD530BCD1F8A800400970470000014033
:101F4000D81A0020D34D6210584B2DE9F0431C6C79
:101F50001746B4F5803F38BF4FF4803283B038BFA6
:101F60001A64032280460E46514B504DDA636C6C66
:101F7000E307FCD5EB6B4F4A83F0200303F0E0034B
:101F8000D363EB6B494D83F0010303F00303D36389
:101F90006C6CA407FCD54FF400624FF48039464BBB
:101FA000464CDA63464B4246636101213346C5F82D
:101FB00040904448009700F057F94FF400616B6B74
:101FC00007FB06F64B4538BFC5F83490384B2269FD
:101FD000B8FBF6F619633AB16369B3FBF2F3013368
:101FE00003EB4303033BFDD23049324A0B6B03F052
:101FF000E00313630B6B83F0020303F0030313632B
:102000008B6B5807FCD54FF400654FF480332A4A98
:1020100015632D4A4B6322610A6C9A424FF003020A
:1020200038BF0B64224B2149DA634B6CDA07FCD5CD
:10203000CB6B204A03F0E003D363CB6B1B4983F0E7
:10204000010303F00303D3634B6C9B07FCD54FF4F0
:1020500080334FF40065184A6661D5630B64CA6C1F
:102060009A4238BFCB644FF40061114BA269996466
:102070003AB16369B3FBF2F3013303EB4303033B70
:10208000FDD24FF400604FF48031084A094D936C43
:1020900083F0400303F0E003AB64074B084DA561F8
:1020A0009864D16403B0BDE8F08300BF0000014034
:1020B000003001400010014000200140D81A0020EB
:1020C000006CDC0200000540001BB7002DE9F04F5A
:1020D0004FF4A078994685B0CDE902125F4CDFF845
:1020E00084A154450AD908F1FF38A4F53B54B8F14E
:1020F0000F0FA4F12004F4D1002069E0072304F5B8
:102100003722019403FB03F402F5D872B2FBF4FE0C
:1021100070454FF0010C4FF002074FF003064FF0EF
:1021200004054FF005013FD0B3F1010E00F094809B
:102130000EFB03F4B2FBF4FB58454CD019B301FB82
:1021400003F4B2FBF4FB58454FD0E5B105FB03F4B3
:10215000B2FBF4FB584553D0AEB106FB03F4B2FB1F
:10216000F4FB584557D077B107FB03F4B2FBF4FBFF
:1021700058455BD0BCF1000F05D00CFB03F4B2FB5B
:10218000F4FB83455DD0734603FB03F4B2FBF4FE1E
:10219000704501F1FF3105F1FF3506F1FF3607F11A
:1021A000FF370CF1FF3CBFD104FB1024002CBBD146
:1021B0009E464A46DDF808B0DDF80C90012028491B
:1021C00001FB08F1CBF80010C9F80030C2F800E0BC
:1021D00005B0BDE8F08F04FB1024002CAED14A46B8
:1021E000DDF808B0DDF80C90E8E704FB1024002CC3
:1021F000ABD14A468E46DDF808B0DDF80C90DDE73D
:1022000004FB1024002CA7D14A46AE46DDF808B0E6
:10221000DDF80C90D2E704FB1024002CA3D14A4631
:10222000B646DDF808B0DDF80C90C7E704FB1024D3
:10223000002C9FD14A46BE46DDF808B0DDF80C9070
:10224000BCE704FB1024002C9DD14A46E646DDF88D
:1022500008B0DDF80C90B1E7019C44E750262F0050
:10226000001BB70050F80C0070B4039D04682D03E8
:1022700045EA03451B4B002CB3FBF1F3B2FBF3F62D
:102280001FDB194A194B904214BF4FF480424FF4A0
:102290000042174C1A6003F580531A60A36832EAB3
:1022A0000303FBD1212200F5405304330160866013
:1022B0001A600268002AFCDA0822C5601A6070BC45
:1022C0007047036803F03F038B42DAD18368C3F39E
:1022D0000B03B342D5D1C36803F4EE23AB42D0D194
:1022E000EDE700BF001BB700008005400020024062
:1022F000000002400A4B0B490B4A5960D36819048D
:10230000FCD40A4BD26843EA0013094953400948F8
:102310001940054AC160D3681B04FCD4704700BF54
:10232000002010400020FE5A000010400000FE5A1D
:10233000F001FE5A00101040012300EB4000800025
:1023400000F1804000F5841041600360704700BFD9
:102350000023DB8A002242E800F2520201D410215D
:1023600018470421184700BF002310B5DA8A044635
:1023700086B0002343E800F35B0254BF1021042120
:1023800045F24730904710220346052101A898479F
:10239000052802D0002006B010BD0DF1080CBCE8E5
:1023A0000F00206001206160A260E36006B010BDF4
:1023B000034AD2F82838002BFBD0BFF35F8F704759
:1023C00000000E400021044B044ABFF35F8F43F826
:1023D000041B9342F9D170470C080E402C080E40A4
:1023E00010B44FF48D704FF42A64064A064B074927
:1023F0001460D06019605368002BFCDA5DF8044B60
:10240000704700BF0080044000A0044000B0FA0004
:10241000704700BF08B50148FEF74CFD049100105D
:1024200038B5054C054DAC4204D254F8043B9847EE
:10243000AC42FAD338BD00BF788C0010B88C0010C5
:1024400010B40748074C084B084A094904601A6051
:102450008B6832EA0303FBD15DF8044B704700BF81
:10246000002002407F3BEFEF00300240F6FFF30315
:1024700000000240044BDB6CB3F5004F03D14FF476
:102480008022024BDA647047000011500020115086
:102490004FF0E022044BD2F8881D0B43C2F8883D70
:1024A00010EE3004704700BF030330006FF060414E
:1024B000044B054A19609368DB4333F06043FAD15B
:1024C000704700BF003002400000024010B545F2E6
:1024D0005320FFF73DFFBDE8104003460420184796
:1024E00010B545F25320FFF733FFBDE81040034617
:1024F00001201847FEF736BD10B5054B054C4FF4CB
:1025000088721846A16806F061F9A06010BD00BF8E
:102510000000002000ED00E0002370B52B4C82B0DD
:10252000C4F88430FFF75CFF0122294BDA63636C47
:10253000012BFCD10321264A244B11639C6B012CF7
:10254000FCD10226052521460523224A2248009671
:10255000FFF78AFE21462B46204A21480095FFF7C7
:1025600083FE0022042031461E4BFFF755FC214616
:10257000284600221C4BFFF74FFC00220820114682
:102580001A4BFFF749FC002209201146174BFFF7B1
:1025900043FC002206201146134BFFF73DFC0022AE
:1025A000114B07201146FFF737FC0420FFF79CFC76
:1025B00000240F4BA3FB0035AD0CE0B229460134DB
:1025C000FFF7BAFE062CF8D102B070BD0000014042
:1025D00000300140002F685900000540008C8647FC
:1025E00000800540001BB70080D1F008006CDC02C1
:1025F00083DE1B4386B003B451FC0804CDE902011D
:1026000051FC0904CDE9040151EC0A04CDE90601AD
:1026100003BCF047BDE800504EEC00C4BDE80050DC
:102620004EEC01C4BDE800504EEC02C400BD0000F9
:1026300000B5FFF7DFFF02E010FE30F4F8D441EC04
:10264000100443EC112400EE010410EE010480EEAE
:10265000200451EC1004704700B5FFF7CBFF02E0F7
:1026600010FE30F4F8D441EC100443EC112400EED9
:10267000010410EE210480EE200451EC3004704778
:1026800000B5FFF7B7FF02E010FE30F4F8D410B544
:1026900041EC100443EC112451EC040453EC0524E8
:1026A000A0FB024C5FF0000EE0FB03CEE1FB02CE8C
:1026B0004CEC20440024E1FB03E444EC30E480EEE5
:1026C000200451EC5004BDE81040704700B5FFF7FE
:1026D00091FF02E010FE30F4F8D441EC100443EC1A
:1026E000112451EC2104A0FB01126FEA820252FB7B
:1026F000100052FB12F252FB1000A0EBD07C53EC06
:1027000004245CFB13F153EC1524A1FB022001FB14
:10271000030053EC4424A2EB000050FB1CF24FEAF0
:10272000111312EB017043EBE27140EA515020EAC1
:10273000915020F0070053EC7524A0FB023C53ECB1
:10274000752400FB03CC01FB02CC53EC0424ACEB5E
:10275000824C40EA5C70A0F1010041EC400480EE44
:10276000200451EC7004704700B5FFF743FF02E00E
:1027700010FE30F4F8D440EC700400EE010410EECA
:10278000210480EE200451EC3004704700B5FFF7BF
:1027900031FF02E010FE30F4F8D440EC600400EEAB
:1027A000010410EE210480EE200451EC3004704747
:1027B00000B5FFF71FFF02E010FE30F4F8D441EC43
:1027C000800400EE010410EE010480EE400410EEDF
:1027D0001304704700B5FFF70DFF02E010FE30F460
:1027E000F8D441EC800400EE010410EE010480EE08
:1027F000400410EE3304704700B5FFF7FBFE02E023
:1028000010FE30F4F8D441EC100443EC112400EE37
:10281000010410EE3004C0F30070704700B5FFF7FC
:10282000E9FE02E010FE30F4F8D443EC102441EC51
:10283000110400EE010410EE30F48CBF01200020E2
:10284000704700BF00B5FFF7D5FE02E010FE30F480
:10285000F8D443EC102441EC110400EE010410EE16
:1028600030F42CBF01200020704700BF00B5FFF7F7
:10287000C1FE02E010FE30F4F8D441EC100443EC49
:10288000112400EE010410EE30F42CBF01200020D2
:10289000704700BF00B5FFF7ADFE02E010FE30F458
:1028A000F8D441EC100443EC112400EE010410EEC6
:1028B00030F48CBF01200020704700BF38B50446BB
:1028C000094806F0CDF9204605F026FC05460648E5
:1028D00006F0BEF92DB1054B2C449C4201D8284688
:1028E00038BD0348FEF7E6FA480E00200000082035
:1028F0001091001070B504460E460B4806F0B0F972
:102900003146204605F0C8FB0546074806F0A0F909
:1029100006FB04F42DB1054B2C449C4201D82846FB
:1029200070BD0348FEF7C6FA480E002000000820DC
:102930001091001010B50446054806F091F92046A4
:1029400005F0F2FBBDE81040014806F081B900BF78
:10295000480E0020704700BF2DE9F04F83B0994624
:10296000DDE90DAB0F9B884611469A07074616D145
:10297000DA453AD20C460D46ABEB0A060E44224627
:102980004B46414620200134B847B442F7D129468E
:10299000BAF1000F08D1204603B0BDE8F08F0C4615
:1029A000BAF1000F10D00E4655460C9B2E449A44A7
:1029B0000191721B4B46013D41461AF8010D344608
:1029C000B847002DF5D101990F9B9B07E3D5651AF8
:1029D000AB45E0D922464B46414620200135B84759
:1029E0005D4504F10104F5D3D5E70C46BAF1000FBB
:1029F000D9D1D0E72DE9F04F0F9FDDF8248017F0F3
:102A0000020F0A9C9DF82CA00E9DDDE90C9644D186
:102A1000F5BBB44241D207F0010B04F1FF3C4FF08B
:102A2000300EC44404E00134A6420CF801EF01D991
:102A3000202CF8D1BBF1000F00F08880A5422CD9E2
:102A400004F1FF3C4FF0300EC44404E00134AC42CA
:102A50000CF801EF21D0202CF8D117F0100F0ED078
:102A600017F4806F54D1A64263D0A54261D0B9F16A
:102A7000100F50D0B9F1020F56D0202C29D12024AC
:102A8000CDE90B57CDE90984BDE8F04FFFF764BFEE
:102A900017F0010B34D1B442BFD317F0100F1ED082
:102AA00017F4806FE3D1002CDDD1B9F1100F63D0A2
:102AB000B9F1020F77D0302488F800400124BAF130
:102AC000000F11D17E0748D52B2608F80460013489
:102AD000D6E7264601344FF0300C08F806C0202C0B
:102AE000CDD0BAF1000FEDD02D2608F804600134E6
:102AF000CDE90B57CDE90984BDE8F04FFFF72CBFB6
:102B0000BAF1000F30D0B44205F1FF3585D395E717
:102B1000B9F1100FB3D1BE063BD5202CAFD058264B
:102B200008F804600134A8E7202CA8D02646013418
:102B300007E0661EB9D0B9F1100F36D0B9F1020F17
:102B4000C9D14FF0620C08F806C096E717F0100FD5
:102B5000C5D017F4806F86D089E73E0790D5202630
:102B600008F8046001348BE717F00C0F00D0013D2A
:102B7000B442FFF452AF61E7BC0612D4782488F85F
:102B80000040302488F801400224BAF1000F99D0A7
:102B9000AAE7202C3FF473AF782608F804600134CC
:102BA0006BE75824EBE76224E9E717F0200FA4F164
:102BB000020C04D04FF0580E08F80CE08BE74FF0F1
:102BC000780E08F80CE086E700B9704701F08ABB80
:102BD00010B1D1E900311847704700BF0000000074
:102BE0002DE9F04F97B09DED207BDDE9225B074694
:102BF000884651EC170B249C99460C920B460246D2
:102C00008DED047B0794FFF7FBFD002840F0F48175
:102C1000DDE904014FF0FF326FF48013FFF702FE8D
:102C2000002840F01B81DDE904014FF0FF32AC4B7E
:102C3000FFF734FE002840F0EE80DDE90401A4A394
:102C4000D3E90023FFF72AFE002840F0D380DDE916
:102C50000401A1A3D3E90023FFF7E4FD002840F01D
:102C6000C980DDE9040100220023FFF7DBFD002815
:102C700040F0E88023460D9013F4806F08BF0625CE
:102C800030212B460EAAA5F1200605E0013BB342F8
:102C900002F8011B00F09381092BF7D81E46ED1AAC
:102CA000DDE90401FFF788FD8E4B044603EBC60304
:102CB00093ED007B8DED087BFFF75AFD02460B4636
:102CC000DDE90401FFF7CCFCDDE90823FFF7DCFCBC
:102CD00002460B46CDE90A23FFF780FD8246FFF747
:102CE00059FD02460B46DDE90A01FFF7B9FC024631
:102CF0000B46CDE90A2300227B4BFFF7CFFD0028CE
:102D000000F0FE800AF1010A5046FFF743FD02463B
:102D10000B46DDE90801FFF799FD10B14FF0000AFD
:102D20000134002E00F0FD80681E0EABDFF8CCC130
:102D300018440FE0ACFB0A21C90801EB8102AAEBA1
:102D400042023032BAF1090F00F8012F40F21C8123
:102D50008A461D46202D05F1010306F1FF36E9D113
:102D60002025691E0EAB6148194410E080FB046207
:102D7000C3EBA20303EB8302A4EB420404F1300291
:102D800001351C4601F8012F002B00F0EB80202DAF
:102D90004FEAE473EAD1079B03F00303012B18D138
:102DA000BBF1000F15D00D9B002B00F00A810BF139
:102DB000FF3BBBF1200F0CD96B1E0EA930220B4438
:102DC00005E001355D4503F8012F80F0D180202D0D
:102DD000F7D1079B0EACCDE902B341464B463846CE
:102DE0000C9A01950094FFF7B7FD8246504617B044
:102DF000BDE8F08F079B9DED047BCDE923B34146F1
:102E00004B4638460C9A8DED207B229517B0BDE8D5
:102E1000F04F00F045B9610723464CBF042303235C
:102E20004146219338464B46079A48BF304CCDE97E
:102E300022B258BF2F4C0C9A209417B0BDE8F04F27
:102E4000FFF78ABDDDE9042300200021FFF708FC1D
:102E50000123CDE904010D9323460DE723469C078A
:102E600040F0AA80BBF1040F40F2A6800C9B1D46E7
:102E70001C1F04EB0B0A2A464B4641462020013515
:102E8000B847AA45F7D155461B4C261F14F8010D2B
:102E90002A464B464146B847B44205F10105F5D1F3
:102EA000079B0AF1040A9807A0D50C9CAAEB04031F
:102EB0009B459BD952464B46414620200AF1010AC8
:102EC000B847AAEB04035B45F4D38FE7AFF3008068
:102ED0000000000065CDCD410000000065CDCDC1F2
:102EE000FFFFEF7F409C00100000E03F67666666D2
:102EF000649100106C91001078910010CDCCCCCC76
:102F00000022DDE90A01634BFFF78CFC00287FF407
:102F100008AFBAF1000F6AD10AF1010A002E7FF45E
:102F200003AF2046FFF724FC02460B46DDE904010F
:102F3000FFF796FB02460B46CDE904230022554BD2
:102F4000FFF770FC00287FF40CAFDDE904010022DC
:102F5000504BFFF7A3FC00287FF403AF013424F0AB
:102F60000104FEE6079B03F00303012B00F08280BF
:102F7000202D3FF42EAF0D9B7BB32D220DEB0503CF
:102F800083F83820013524E7202B3FF4E9AE0EAA60
:102F900015441E44302204E0202B05F8012F3FF495
:102FA000DFAE9E4203F10103F6D12E220DEB0603A4
:102FB00083F83820751CD4E6DDF830A063E72025BF
:102FC0006EE6079B13F00C0F50D00BF1FF3BAB45A7
:102FD0003FF6F2AE202D3FF4FCAE079B5A0701D519
:102FE0002B22CBE71B077FF5F4AE2022C6E71AF0B1
:102FF000010F3FF496AE8FE7A60734D1BBF1030F64
:1030000031D90C9B1D46DC1E04EB0B0A2A464B46AD
:10301000414620200135B8475545F7D155461E4C4D
:10302000E61E14F8010D2A464B464146B847A64213
:1030300005F10105F5D1079B0AF1030A9D077FF50C
:10304000D5AE0C9CAAEB04039B457FF6CFAE52464F
:103050004B46414620200AF1010AB847AAEB040377
:103060009B45F4D8C2E6DDF830A0D7E7AB453FF684
:10307000A3AEAEE6BBF1000F3FF47AAF0D9B002B81
:103080009FD00BF1FF3B5D45FFF496AE202D7FF402
:1030900074AF9EE60000E03F739100100000000056
:1030A0002DE9F04F9FB02A9EDDE92845074693465B
:1030B0000891099322462B46204629460E96DDE9C3
:1030C0002BA6FFF79DFB002840F0BE802046294636
:1030D0004FF0FF32784BFFF7E1FB002840F0B4805F
:1030E000204629464FF0FF326FF48013FFF79AFB1A
:1030F000002840F0A9802046294600220023FFF73F
:1031000091FB002840F0D581CDE90A45DDE90A238D
:103110009046994606F4006216F480630F9213936A
:1031200040F0A18058EA090340F0CA80002A40F02C
:10313000E38106230E9316F00202109240F0D48130
:103140005346042B38BF04230C920422043B1292F2
:103150000F932046294600220023FFF763FB002837
:1031600040F0F3819DED0A7B0F9B5A4603930E9B23
:103170008DED007B029326F4006304933846099B8F
:103180000899FFF72DFD024616F0200F099B0899BC
:103190000CBF6520452002F10108B8470C9A129B2C
:1031A00016AC5D1E82EAE273A3EBE273D10F002638
:1031B00022469946DFF804C101E0202E10D0CE4609
:1031C000ACFB0930C00800EB8003A9EB43033033AC
:1031D000BEF1090F814606F1010602F8013BECD869
:1031E0000523002006930A2305950094099D089C59
:1031F0004246CDE90330CDE901612B4621463846F0
:10320000FFF7F8FB109A8046D2B1A0EB0B06B2454F
:1032100016D90BEB06022B46214620200136B84773
:10322000B245F6D80BF1FF335344CBF10102A3EBC7
:1032300008034244924538BF002308F1010898442E
:1032400040461FB0BDE8F08F5A463846CDE92845C4
:10325000CDE92BA60E9C099B08992A941FB0BDE8C6
:10326000F04FFFF7BDBC58EA09032BD1002A3FF409
:1032700062AF00230C930E9B0C9A934200F3B9812A
:103280004FF000082046294600220023FFF7CAFA23
:10329000002840F013819DED0A7B26F4006646F479
:1032A00080668DED287B5A463846CDE92A8A099BEF
:1032B00008992C96D2E700BFFFFFEF7FCDCCCCCC96
:1032C00006230E93C9F30A50A0F2FF30FFF750FA1D
:1032D000C1A3D3E90023FFF7D7F9C1A3D3E90023A2
:1032E000FFF7AAF9C9F31309CDE90C0149F07F51A1
:1032F00040460022B24B41F44011FFF7B1F9A4A3BC
:10330000D3E90023FFF7C0F902460B46DDE90C01C3
:10331000FFF792F9FFF750FA0C90FFF729FA9EA3F6
:10332000D3E9002380468946FFF7AEF90022A54B7A
:10333000FFF782F9FFF740FA0346494640461293E9
:1033400097A3D3E90023FFF79FF980461298894697
:10335000FFF70EFA94A3D3E90023FFF795F902468D
:103360000B4640464946FFF77BF902460B4680462E
:103370008946FFF789F942464B46CDE910014046A0
:103380004946FFF759F90022CDE91401DDE91001A2
:103390008D4BFFF79FF900228C4BFFF74DF902464A
:1033A0000B46DDE91001FFF795F90022884BFFF786
:1033B00043F902460B46DDE91001FFF78BF942465F
:1033C0004B468046894600204FF08041FFF748F980
:1033D00002460B4640464946FFF72EF902460B4689
:1033E000DDE91401FFF776F900227A4BFFF724F9A3
:1033F000129B002203F2FF3C4FEA0C53FFF744F903
:1034000080468946DDE90A0142464B46FFF70AFA43
:1034100050B10C9B4046013B49460C9300226B4B3C
:10342000FFF758F9804689460C9A43466332C62A0C
:1034300006F00202109249460F9A2CD8002A5ED05C
:10344000042212920B433FF416AFDDE90A0158A3A0
:10345000D3E90023FFF70EFA48B1DDE90A0156A3CC
:10346000D3E90023FFF7DEF900287FF404AF0E9BB9
:10347000002B50D0139A002A7DD0013B0E93129B53
:103480009A4505D9109B002B00F0AE8002231093C3
:1034900000230F9344E022BBBAF1050F4FD906F089
:1034A0000203002B49D105231293AAF105030F93C0
:1034B0003AE005F100430A940B9327E626F40066F0
:1034C00046F4806638462C96DDE90A67344607F1F3
:1034D00000455A46CDE92A8ACDE92845099B089935
:1034E000BCE605221292ADE700230222CDE90F329D
:1034F00004220C9312922CE64FF00508C2E6BAF1B2
:10350000040F1FD9109B002B78D104231293AAF12A
:1035100004030F9304E0129B9A4531D80E9B0F933E
:103520000C9B002B3FF415AEDDE90A0142464B46E9
:10353000FFF7D0F8CDE90A010BE60223109305232B
:103540001293F1E704231293EAE7DDE90A45A04666
:103550000F9B05F1004903930E9B5A46029326F4F4
:10356000006304933846CDE90089099B0899FFF769
:1035700037FB024608E6129B9A4544D80F92CFE7E4
:10358000109B8BB30E9B0F9302231093C8E700BFD1
:1035900061436F63A787D23F71A379094F930A40B4
:1035A0001655B5BBB16B0240EF39FAFE422EE63F2D
:1035B0002D431CEBE2361A3F0000000080842E41B0
:1035C0000000F83F0000E03F00002C4000002440D5
:1035D000000018400000F03FFB799F501344D33F98
:1035E000B3C8608B288AC63F129BAAEB03030F93D4
:1035F00096E7A3EB020808F1FF3843E60423129391
:10360000022310938CE7109B002BEDD002230F9226
:10361000109385E72DE9F04F9BB0249C954D0A94BB
:10362000954CB1F1000A18BF834625601878934C79
:10363000914608BFA3460993002800F093824FF0FB
:1036400000080AE042464B46514608F10108D847B7
:10365000099B1878002800F0CE80099B252803F1EB
:1036600001030993EED11C460023224612F8010BF8
:10367000A0F1200110290AD8DFE801F04009093C37
:103680000909090909090938093409093000A0F1B3
:1036900030010929099440F28A802A2800F0F0803C
:1036A00000252E2800F096800026A0F1680112293E
:1036B0002DD8DFE811F049012C0043012C0038011E
:1036C0002C002C002C002C002C002C002C0027009F
:1036D0002C002C002C002C002C002700144643F05A
:1036E0000103C2E7144643F00203BEE7144643F069
:1036F0000403BAE7144643F01003B6E7144643F058
:103700000803B2E70999487843F4807301326728C7
:1037100009927ED8242840F2C180A0F12502422AD5
:1037200000F2BC80DFE812F05001BA00BA00BA0023
:10373000BA00BA00BA00BA00BA00BA00BA00BA00B9
:10374000BA00BA00BA00BA00BA00BA00BA00BA00A9
:10375000BA00BA00BA00BA00BA00BA00BA00BA0099
:10376000BA00BA00BA00BA00190137011901BA004B
:10377000BA00BA00BA00BA00BA00BA00BA00BA0079
:10378000BA00BA00BA00BA00BA00BA00BA00BC0166
:10379000BA00BA00BA00BA00BA00BA00BA00BA0059
:1037A000BA00BC015801BC011901370119010025FB
:1037B00000E0013205EB850500EB45051078303D52
:1037C000A0F130010929F4D92E28099202F1010251
:1037D0007FF46AAF099943F4806348781146A0F1F9
:1037E0003006092E40F221812A2800F02F8109920B
:1037F0000026013259E74446C14501D809F1FF3896
:103800004B46424651460020D84720461BB0BDE8F3
:10381000F08FA0F16902D2B20F2A3FD8012149F2FC
:1038200041079140394040F0F3800A2A3DD0072AF1
:1038300034D10A9D55F8042B002A00F0138143F07F
:10384000210012AB1F460B9303E0202900F01481E6
:103850001A4602F00F042346092C94BF3033373345
:103860000F2A07F8013B01F101014FEA1213ECD8CE
:1038700002E100BF15360010681F00205529001016
:103880000A99099851F8045B4078002DCDE9092187
:10389000BCBF43F002036D42013202E742464B4691
:1038A000514608F10108D847D2E60A99002E51F88E
:1038B000047B18BF3246387808BF4FF0FF3200282B
:1038C00000F07B83BC18A4463A4604E012F8014F8E
:1038D000002C00F03F819445F8D16446E41B5A0562
:1038E00040F12281B44228BF344613F0020300F0B5
:1038F00088820223CDE90A5142461D46464408E02B
:103900004B465146D84717F8010F08F1010810B18E
:1039100042464645F4D12B460B990A9D002B40F0B8
:1039200041810A9194E6099948786C287FF4ECAEBD
:103930000A46887843F440730332E8E6099943F471
:10394000007348780132E2E609994878682800F067
:10395000038143F080030132D9E6672800F0D98063
:10396000472800F0DC80452800F0DB80CDE90353D8
:103970000A9B0296073323F007031C464246F4E8ED
:1039800002674B4651465846CDE900670A94FFF757
:1039900087FB80465CE6462808BF43F02003CDE95C
:1039A00003530A9B0296073323F007031C46424643
:1039B000F4E802674B4651465846CDE900670A9441
:1039C000FFF70EF9804643E642464B465146252016
:1039D00008F10108D8473BE60A9A990702F1040466
:1039E00008F1010640F1C68010784B464246514628
:1039F000D847012D88BFA84440F2BD8132464B46CE
:103A0000514620200136D8474645F7D10A941FE693
:103A10006F2800F0818040F24882782800F0908181
:103A20000A2723F01003BC4641E0002606EB860679
:103A300000EB4600A0F1300611F8010FA0F13002B2
:103A4000092AF3D90A46099101322EE6DDE9092156
:103A500051F8046B9078023209920A91013226EAF9
:103A6000E67622E623F0100013F4806240F0210095
:103A70003FF4E7AE12AB0B930B9B06900093082329
:103A80001020059300234246CDE9023001914B46B8
:103A9000514658460496FEF7ADFF0A958046D7E595
:103AA000582862D0622840F08F800227BC4613F469
:103AB000806000F0DD8023F00D0313F4007240F00D
:103AC00081810A990F1D13F4807140F037825C06E2
:103AD0000A9A40F13B811278002A40F04E8123F08F
:103AE0001003002800F04981114612AA0B92CDE97B
:103AF0000553CDE903C601910B9B42460093002379
:103B00005146029358464B46FEF774FF0A9780468B
:103B10009EE543F4006329E70827BC46C7E743F462
:103B2000006343F0200321E713F0020300F08E81CD
:103B300002230A951E460D4642464B465146D8473B
:103B400017F8010F08F101080028F5D1294633467E
:103B50000A9DE3E6D41BC2E60A46887843F0C00318
:103B60000332D4E50446804646E6102743F020039E
:103B7000BC469CE7012D40F2F880464608F1FF372D
:103B80002F4432464B46514620200136D847BE428C
:103B9000F7D10A9B3246187851464B46D847A8447D
:103BA0000A9455E54646A5427FF6BBAEA844A8EB6D
:103BB00004080C4632464B46514620200136D84771
:103BC0004645F7D12146ACE613F4806200F0BB8095
:103BD0004FF4806223F0110C1CF400770A9B4AD149
:103BE0001CF4807003F1040440F034811CF0400F99
:103BF00040F0A3801CF0800F00F0D381B3F90010D7
:103C000081EAE177A7EBE177BFB2CB0F002900F0A3
:103C100056813A4612A90F46DFF8D8E30B910A9372
:103C20000C9501E020280FD01546AEFB0213DB08EF
:103C300003EB8301A2EB41013031092D1A4600F15B
:103C4000010007F8011BEDD80A9B0C9DCDE9055C2E
:103C5000CDE9010304960B9B424600930A2351468B
:103C6000039358464B46FEF7C5FE0A948046EFE4A0
:103C700023F00C0321E7073323F007031946084616
:103C80005B6850F8081BDF0F0A9051EA030062D10D
:103C9000002A40F09F811346114612AACDE90C7507
:103CA00000201546CDE90E68DFF848E30B9201E0ED
:103CB00020282DD05A1842F10002AEFB027828F0DD
:103CC000030707EB9807D21B1E469B1A61F10007FA
:103CD0000C464FF0CC3101FB03F10EFB0711A3FBA7
:103CE0000E731944052307F00108A8FB03389B183D
:103CF0000A2E03F130034FEA570774F1000405F868
:103D0000013B00F1010047EAC1734FEA5101CFD2F4
:103D1000DDE90C75DDE90E680B9B424600930A2332
:103D2000CDE9055CCDE90107049603934B46514666
:103D30005846FEF75FFE80468AE419780F4664E72E
:103D40001027BC46B3E623F0100C45E71C064CBF19
:103D500012881268C0E60A46191E01DB13469CE76A
:103D60005242134661EB410197E7134651461878DA
:103D700042464B46D847B04648E613F0200F14BFE2
:103D80004120612012ACA6460B940A93A0F10A04CC
:103D90000C9502E0202912D02A46B2FBFCF50CFB60
:103DA0001520C3B2092803F130008ABF1B19C3B222
:103DB000DBB262450EF8013B01F10101EAD20A9B38
:103DC0000C9D94E60A9A073222F00702516852F8D5
:103DD000084B8E460A9254EA010276D123F0100372
:103DE000002872D00022114612AA0B92CDE9055389
:103DF0000B9B424600930023CDE903C60191029339
:103E000094E7A54298BF01347FF674AD4FF4806308
:103E1000CDE90A7505EB08021F460D46141B424604
:103E20004B465146202008F10108D847A045F6D15D
:103E30003B460A9F294638780B9D6C1C00283FF4AE
:103E400070AD002B3FF475AE002353E5A542DFD8DB
:103E500001346EE61968CB0F002900F0A88081EAD2
:103E6000E172A2EBE17212A90846DFF888E10B913A
:103E70000A930C9501E0202F0FD01546AEFB0213DC
:103E8000DB0803EB8301A2EB41013031092D1A4617
:103E900007F1010700F8011BEDD80A9B0C9DCDE945
:103EA000055CCDE901730496D5E6692823F0100C72
:103EB00040F08C8013F480623FF48EAE88E6002AD6
:103EC0003FF4A8AE12AA0B92C0E613F0200F14BF65
:103ED00041226122002012A90A3ACDE90E68CDE9FB
:103EE0000C35CDF844B006468846754693460B918E
:103EF000CDF840C003E0202E17D004460D462946D9
:103F00003A460023204604F09FFED2B2092A02F16D
:103F1000300388BF02EB0B03BC42DBB275F1000536
:103F200008F8013B06F10106E5D23146DDE90C3522
:103F3000DDE910CBDDF83C800E9E57E70A99096851
:103F400051B923F0100338B112A90B91CDE90553F3
:103F5000CDE903C60192CFE513F0200F14BF412035
:103F6000612012ACA6460B940A93A0F10A040C95AA
:103F700002E0202A12D02946B1FBFCF50CFB1510FB
:103F8000C3B2092803F130008ABF1B19C3B2DBB2E8
:103F900061450EF8013B02F10102EAD20A9B0C9D39
:103FA000D4E7196881EAE177A7EBE1772DE6002AEB
:103FB0003FF459AF12AA0B9271E713F480640DD04D
:103FC00013F0020412D004464646ECE50A27634685
:103FD000BC466CE512AB00200B939DE613F0020388
:103FE0007FF4E0AD002D7FF413AF9AE4002D7FF451
:103FF0000DAF96E4CDCCCCCC70B594461E460546AC
:104000000C4684B04FF0FF32634602A90096034885
:10401000CDE90254FFF7FEFA04B070BDD12B0010B9
:1040200010B5094B84B01C684CB1034600914FF0A9
:10403000FF3203A90548A047012004B010BD00F0DD
:1040400093F9204604B010BD681F0020C92B001052
:1040500000BEFDE7074A0346106838B1064903442D
:104060008B428CBF4FF0FF30136070470349084606
:104070001160F3E7641F00200000082024210020C5
:1040800008B5FFF7E5FF00BF38B5064C064DFEF753
:10409000C7F9AC4204D254F8043B9847AC42FAD377
:1040A00038BD00BFB88C0010C08C001003680846F3
:1040B000114618472DE9F0411546427D07468846CE
:1040C000002A46D0002D1DDD0B780A2B23D0012DB0
:1040D0004FF0000C18D04646012416F8012F214657
:1040E0000A2A04F1010422D0A542F6D165450BDC71
:1040F00008EB050313F8013CA3F10D03B3FA83F3B6
:104100005B093B75BDE8F0813B68A5EB0C0108EB52
:104110000C009847ECE7037D002BD8D103680221FF
:104120000F489847012DE3D04FF0010CD3E716F864
:10413000013C0D2BD8D08C4508EB0C00A1EB0C01F9
:1041400001DA3B689847022105483B689847A44636
:10415000CAE7294640463B68BDE8F041184700BF22
:10416000909C00100B682DE9F041802B0D4606460F
:1041700005D05A1C2B442A601E71BDE8F0810F4BFC
:104180001C68A4B10E4F01F1040801E0246974B168
:104190002368002BFAD03B680BB1A342F6D120462E
:1041A00041462A68FFF786FF2469002CF0D10023DE
:1041B00001222B442A601E71BDE8F081001F0020FF
:1041C000401F00202DE9F04782B00D4691461C4665
:1041D0000646FDF7D7FC4FF0FF3C6FF000472E4A34
:1041E000821841F10003944577EB03013CBF62461E
:1041F0003B462A4804F038FD6B1C804640D00CB387
:10420000274F284B1C68B4B1B9F1000F1CD1DFF85F
:104210009C9001E0246974B12368002BFAD0D9F88E
:1042200000300BB19C42F5D120462A463146B847B2
:104230002469002CF0D1B8F1000F26D1284602B035
:10424000BDE8F087184FDCE74FF00A0ADFF85C9012
:1042500002E02469002CEED02368002BF9D0D9F8B5
:1042600000300BB1A342F4D12A4631462046B8476C
:10427000012220460DF107018DF807A0B847E8E7B5
:10428000304604F019FB0546B9E7044804F0E0FCA9
:10429000284602B0BDE8F08740420F00500E0020D3
:1042A000B5400010001F0020AD400010401F00204E
:1042B000084A136823B90AE003F110021B6933B1FD
:1042C0008342F9D129B9186910601961704701B1A9
:1042D00010607047001F002008B500F0A3F901200E
:1042E00008BD00BFF0B583B006468DF80700FDF7A6
:1042F00049FC4FF0FF356FF00044174A821841F136
:104300000003954274EB03013CBF23462A46134841
:1043100004F0AAFC124B07461C689CB1114D01E049
:1043200024697CB12368002BFAD02B680BB19C4226
:10433000F6D1204601220DF10701FFF7BBFE2469EB
:10434000002CEFD117B9304603B0F0BD034804F09C
:104350007FFC304603B0F0BD40420F00500E0020FD
:10436000001F0020401F002038B5044604F0A4FAC6
:10437000012305461A4620462946FFF723FF084B2E
:104380001C682CB163682BB198472469002CF9D1C3
:10439000284638BD2469002CF4D1284638BD00BF1A
:1043A000001F00202DE9F041A2B004460D46FDF7A4
:1043B000E9FB4FF0FF376FF00046264ADFF8A48094
:1043C000821841F10003974276EB03013CBF3A4665
:1043D0003346214804F048FC00272B462246064677
:1043E00001A91E480197FFF707FE019B0546D8F873
:1043F0000040C3B1002C2BD0194F01E0246974B1E7
:104400002368002BFAD03B680BB1A342F6D12046BB
:10441000019A02A9FFF74EFE2469002CF0D1002377
:10442000D8F8004001932CB1636843B198472469E0
:10443000002CF9D12EB9284622B0BDE8F0812469BC
:10444000F1E7054804F004FC284622B0BDE8F081FD
:104450000194EFE740420F00500E0020654100102C
:10446000401F0020001F00200FB400B583B004A936
:1044700051F8040B0191FFF795FF03B05DF804EBD1
:1044800004B07047B1F1000C1DDD0F4A0F4B1268EC
:1044900030B5D31AB3FA83F30D240D4D5B09411ED9
:1044A00035F913E08C4411F8010F864506D0936965
:1044B0009B06FCD461451060F5D130BD93699D0623
:1044C000FCD41460F3E77047F41F0020008007401D
:1044D000F01F0020224BB1F1000C10B41C682EDD3F
:1044E000034600201F4A591E12689369DB0617D441
:1044F00001309369DB06FCD41368844501F8013F61
:10450000F3D14CB150211346916353F8342F02F08C
:10451000380203F580531A6060465DF8044B70471B
:104520004CB150211346916353F8342F02F03802F6
:1045300003F580531A6078B15DF8044B70475CB1A5
:10454000084B50211A681346916353F8342F02F038
:10455000380203F580531A606FF00200DDE700BFF8
:10456000CC1A0020F41F0020054B1B6833B100213A
:10457000044A05481268006891631847704700BFF5
:10458000CC1A0020F41F0020D01A0020024B1A6819
:1045900093691B07FCD47047F41F0020F8B51C4F2B
:1045A0001C4D3A681C4EAA4214BF21252225044600
:1045B000D6F800C018B1BCF1000F10D0F8BDBCF1A6
:1045C000000FFBD0014690632846FCF7F7FC284615
:1045D0001249FCF739FD124B34601C60F8BD0B46E4
:1045E0000F4A0E49306028461360FCF7FDFC01219C
:1045F0002846FCF7E3FC3A6850211346916353F8D0
:10460000342F02F0380203F580531A60F8BD00BF62
:10461000F41F002000800740CC1A002069450010DC
:10462000D01A002010B50E490E4C0F480F4A104BFF
:10463000007821600020022112781B78FCF7D4FB5F
:1046400002210120FCF7D0FB4FF4E1312068FDF797
:10465000E3FABDE8104001210648FFF729BE00BF7C
:1046600000000740F41F0020E09C0010DC9C0010BC
:10467000D89C0010D4080020F0B4154F154AC0197A
:1046800042EB0101820F42EA8102134B424002FBDE
:1046900003F3124E81EA917106FB0133A2FB062659
:1046A0003344D00E0E4C40EA4310504004FB00F15E
:1046B0000C4D83EAD363A0FB050205FB0311F0BC9C
:1046C000C30F114443EA4103584081EAD171704756
:1046D000157C4A7FB979379E6D4758BFB9E5E41C10
:1046E000BB49D094EB11311370B5EFF3108C72B657
:1046F000204CD4E8CF2F0123002AFAD1C4E8423F4E
:10470000002AF6D1BFF35F8F1B490B78012B10D91C
:10471000023BDBB21846194A03F1010E0B7052F846
:10472000200052F82E100023C4E88F3F8CF310882D
:1047300070BD4FF0FF320020114B18639A63DA62AC
:104740009A60D3F8B820002AFBD104205D690B4A97
:104750004FF0050E15609D695560DD6995601D6A15
:10476000D5605D6A1561074D9E6A2D685661DD60F2
:104770000346D3E7B41A002021210020D81F0020CF
:1047800000010F4010010020F8B5D0E90064054693
:104790008068E96846EA000344EA0102134304D151
:1047A000FDF7F0F950EA0103FAD086EA0003614010
:1047B000A000B7002206BF1940EA96704FEA066EC5
:1047C00042EA16224FEA014646EA13464EEA142E02
:1047D00082EA010244EB000072408EEA030484EA9C
:1047E00003446A60DA0E4FEAC71C42EA41122C60A9
:1047F000C90EC40144EA57644CEA506041EA4313CD
:10480000EB60E100C300181841EA5C71AA6044EB58
:104810000101F8BD2DE9F04F5C4D8DB02B78002BD8
:1048200055D05B4C5B4F08AEBB68DFF86C810093E2
:10483000D7E900A598F800B0D7F80C90FDF7A2F9D9
:10484000FFF71AFF80EA0A0A4D40FFF74DFFFFF716
:1048500013FF009B5FFA8BFB584081EA0903EFF3DB
:10486000108972B6D4E8CF1F01220029FAD1C4E81A
:10487000412F0029F6D1BFF35F8F98F800205A45E9
:1048800008D03A688AEA020A7A685540BA68504005
:10489000FA685340CDE90A033046CDE908A5FFF791
:1048A00073FFDDE90AAB98F80030C7E902ABDDE938
:1048B00008AB0133DBB20022C7E900AB88F8003057
:1048C000C4E88F2F89F310880DB0BDE8F08F08AED3
:1048D0003046FDF749FDDDE90A34DDE90889CDE917
:1048E0000034FDF74FF983468A46FFF7FDFE034685
:1048F0000F46EFF3108272B6254CD4E8CF0F01219A
:104900000028FAD1C4E8401F0028F6D1BFF35F8F1A
:10491000297831B11F4F0023C4E88F3F82F31088FC
:1049200082E758465146CDE90223FFF7A5FE8646A9
:104930008C4640464946E046F146FFF79DFE039B04
:1049400081EA080180EA0900CDE9040118463946E8
:10495000FFF792FE0F468046DDE90001FFF78CFE6F
:10496000794080EA0800CDE9060104A8FFF70CFFB2
:10497000DDE906010123074F029AC7E90201DDE9DB
:1049800004012B70C7E90001C5E700BF202100200A
:10499000B41A0020100100201C21002008B5FFF7E8
:1049A00039FF08BD00B545F247308BB0FDF7D0FCAC
:1049B00001220346092101A89847DDE90332044991
:1049C00012BA1BBAC1E900230BB05DF804FB00BFAB
:1049D000AC1F0020384B2DE9F047984214BF4FF42C
:1049E00000234FF4802307460E46344D344C354A9D
:1049F0002B602360956833EA0505FBD10620FDF79F
:104A000073FA39464FF0020A51F804EF4FEAD659CB
:104A10004FEA462C01F5405863464A4654460EEA92
:104A20000A0EC8F800A008E013EB0C0304F102041E
:104A300042EB0902B4F5807F03D0984275EB020A7D
:104A4000F2D24FF48073C4EB042201E0012B30D08A
:104A5000B0FBF2FC66459946A2EB040203F1FF337A
:104A6000F4D209FB04F91D023C6102243B460326F3
:104A70003A6801F500516A4007F5805C02F47F4214
:104A8000CCF80020C1F800E07D68C8F8004053F879
:104A9000242B254082F0070202F0CF0203F50053D9
:104AA000CCF80020B0FBF9F00D601E600C60BDE892
:104AB000F087A146D8E700BF000008400020024070
:104AC000003002400000024038B5034606201C6951
:104AD0001D68FDF709FAC5F3072505FB0444B0FB83
:104AE000F4F038BD98B138B504460025E30704D486
:104AF0006408E30705F10105FAD52946044A05488B
:104B0000FCF7F0F9640801D00135EFE738BD7047D4
:104B1000A8910010142100202DE9F04F012783B047
:104B20008DF8077000BF00BF00BF4FF0000B4FF0C3
:104B300008084BEC408000BF00BF00BF00BF00BFB3
:104B400000BF16244BEC404000BF00BF00BF93489D
:104B50003A460DF1070104F08BF800BF00BF00BF1B
:104B600047EC404000BF00BF00BF9620FCF718FF95
:104B700011238DF8073000BF00BF00BF4BEC408011
:104B800000BF00BF00BF00BF00BF00BF4BEC4040F4
:104B900000BF00BF00BF81483A460DF1070104F095
:104BA00067F800BF00BF00BF47EC404000BF00BF38
:104BB00000BFFA20FCF7F4FEFA20FCF7F1FEB12367
:104BC0008DF8073000BF00BF00BF4BEC408000BF36
:104BD00000BF00BF00BF00BF00BF4BEC404000BFA4
:104BE00000BF00BF6D483A460DF1070104F040F8E0
:104BF00000BF00BF00BF47EC404000BF00BF00BF88
:104C00008DF8077000BF00BF00BF47EC408000BFB9
:104C100000BF00BF00BF00BF00BF4BEC404000BF63
:104C200000BF00BF5D483A460DF1070104F020F8CF
:104C300000BF00BF00BF47EC404000BF00BF00BF47
:104C40004FF02C0A8DF807A000BF00BF00BF47EC53
:104C5000408000BF00BF00BF00BF00BF00BF4BECE3
:104C6000404000BF00BF00BF4C483A460DF107016D
:104C700003F0FEFF00BF00BF00BF47EC404000BF95
:104C800000BF00BF4FF02D098DF8079000BF00BF97
:104C900000BF47EC408000BF00BF00BF00BF00BFA7
:104CA00000BF4BEC404000BF00BF00BF3B483A464E
:104CB0000DF1070103F0DCFF00BF00BF00BF47ECB0
:104CC000404000BF00BF00BFB2238DF8073000BFD7
:104CD00000BF00BF4BEC408000BF00BF00BF00BF63
:104CE00000BF00BF4BEC404000BF00BF00BF2B48DF
:104CF0003A460DF1070103F0BBFF00BF00BF00BF44
:104D000047EC404000BF00BF00BF8DF8077000BFF8
:104D100000BF00BF47EC408000BF00BF00BF00BF26
:104D200000BF00BF4BEC404000BF00BF00BF1B48AE
:104D30003A460DF1070103F09BFF00BF00BF00BF23
:104D400047EC404000BF00BF00BF8DF807A000BF88
:104D500000BF00BF47EC408000BF00BF00BF00BFE6
:104D600000BF00BF4BEC404000BF00BF00BF0B487E
:104D70003A460DF1070103F07BFF00BF00BF00BF03
:104D800047EC404000BF00BF00BF8DF8079000BF58
:104D900000BF00BF47EC408002E000BF0080084039
:104DA00000BF00BF00BF00BF00BF00BF4BEC4040D2
:104DB00000BF00BF00BF8F483A460DF1070103F066
:104DC00057FF00BF00BF00BF47EC404000BF00BF1F
:104DD00000BFB3238DF8073000BF00BF00BF4BEC0E
:104DE000408000BF00BF00BF00BF00BF00BF4BEC52
:104DF000404000BF00BF00BF7E483A460DF10701AA
:104E000003F036FF00BF00BF00BF47EC404000BFCB
:104E100000BF00BF8DF8077000BF00BF00BF47ECA8
:104E2000408000BF00BF00BF00BF00BF00BF4BEC11
:104E3000404000BF00BF00BF6E483A460DF1070179
:104E400003F016FF00BF00BF00BF47EC404000BFAB
:104E500000BF00BF8DF807A000BF00BF00BF47EC38
:104E6000408000BF00BF00BF00BF00BF00BF4BECD1
:104E7000404000BF00BF00BF5E483A460DF1070149
:104E800003F0F6FE00BF00BF00BF47EC404000BF8C
:104E900000BF00BF8DF8079000BF00BF00BF47EC08
:104EA000408000BF00BF00BF00BF00BF00BF4BEC91
:104EB000404000BF00BF00BF4E483A460DF1070119
:104EC00003F0D6FE00BF00BF00BF47EC404000BF6C
:104ED00000BF00BF8DF8077000BF00BF00BF47ECE8
:104EE000408000BF00BF00BF00BF00BF00BF4BEC51
:104EF000404000BF00BF00BF3E483A460DF10701E9
:104F000003F0B6FE00BF00BF00BF47EC404000BF4B
:104F100000BF00BF8DF807A000BF00BF00BF47EC77
:104F2000408000BF00BF00BF00BF00BF00BF4BEC10
:104F3000404000BF00BF00BF2E483A460DF10701B8
:104F400003F096FE00BF00BF00BF47EC404000BF2B
:104F500000BF00BF8DF8079000BF00BF00BF47EC47
:104F6000408000BF00BF00BF00BF00BF00BF4BECD0
:104F7000404000BF00BF00BF1E483A460DF1070188
:104F800003F076FE00BF00BF00BF47EC404000BF0B
:104F900000BF00BFB4238DF8073000BF00BF00BFC3
:104FA0004BEC408000BF00BF00BF00BF00BF00BF90
:104FB0004BEC404000BF00BF00BF0E483A460DF129
:104FC000070103F055FE00BF00BF00BF47EC4040A3
:104FD00000BF00BF00BF07238DF8073000BF00BF30
:104FE00000BF47EC408000BF00BF00BF00BF00BF54
:104FF00000BF01E0008008404BEC404000BF00BF14
:1050000000BF91483A460DEB030103F031FE00BFAB
:1050100000BF00BF47EC404000BF00BF00BFC0233F
:105020008DF8073000BF00BF00BF4BEC408000BFD1
:1050300000BF00BF00BF00BF00BF4BEC404000BF3F
:1050400000BF00BF80483A460DF1070103F010FE93
:1050500000BF00BF00BF47EC404000BF00BF00BF23
:10506000A2238DF8073000BF00BF00BF47EC40808F
:1050700000BF00BF00BF00BF00BF00BF4BEC4040FF
:1050800000BF00BF00BF70483A460DF1070103F0B2
:10509000EFFD00BF00BF00BF47EC404000BF00BFB6
:1050A00000BF02238DF8073000BF00BF00BF47ECF0
:1050B000408000BF00BF00BF00BF00BF00BF4BEC7F
:1050C000404000BF00BF00BF5F483A460DF10701F6
:1050D00003F0CEFD00BF00BF00BF47EC404000BF63
:1050E00000BF00BF84238DF8073000BF00BF00BFA2
:1050F00047EC408000BF00BF00BF00BF00BF00BF43
:105100004BEC404000BF00BF00BF4F483A460DF196
:10511000070103F0ADFD00BF00BF00BF47EC4040FA
:1051200000BF00BF00BFC1238DF8073000BF00BF24
:1051300000BF4BEC408000BF00BF00BF00BF00BFFE
:1051400000BF4BEC404000BF00BF00BF3E483A46A6
:105150000DF1070103F08CFD00BF00BF00BF47EC5D
:10516000404000BF00BF00BF4FF0C5098DF8079059
:1051700000BF00BF00BF47EC408000BF00BF00BFC2
:1051800000BF00BF00BF4BEC404000BF00BF00BFEE
:105190002D483A460DF1070103F06AFD00BF00BF3C
:1051A00000BF47EC404000BF00BF00BFC2238DF8E6
:1051B000073000BF00BF00BF4BEC408000BF00BF06
:1051C00000BF00BF00BF00BF4BEC404000BF00BFAE
:1051D00000BF1D483A460DF1070103F049FD00BF2D
:1051E00000BF00BF47EC404000BF00BF00BF0A2324
:1051F0008DF8073000BF00BF00BF47EC408000BF04
:1052000000BF00BF00BF00BF00BF4BEC404000BF6D
:1052100000BF00BF0C483A460DF1070103F028FD1E
:1052200000BF00BF00BF47EC404000BF00BF00BF51
:105230008DF807B000BF00BF00BF47EC408000BF43
:1052400000BF00BF02E000BF0080084000BF00BFF9
:1052500000BF4BEC404000BF00BF00BF90483A4643
:105260000DF1070103F004FD00BF00BF00BF47ECD4
:10527000404000BF00BF00BFC3238DF8073000BF10
:1052800000BF00BF4BEC408000BF00BF00BF00BFAD
:1052900000BF00BF4BEC404000BF00BF00BF8048D4
:1052A0003A460DF1070103F0E3FC00BF00BF00BF69
:1052B00047EC404000BF00BF00BF4FF08A0A8DF8A6
:1052C00007A000BF00BF00BF47EC408000BF00BF89
:1052D00000BF00BF00BF00BF4BEC404000BF00BF9D
:1052E00000BF6F483A460DF1070103F0C1FC00BF53
:1052F00000BF00BF47EC404000BF00BF00BF2A23F3
:105300008DF8073000BF00BF00BF47EC408000BFF2
:1053100000BF00BF00BF00BF00BF4BEC404000BF5C
:1053200000BF00BF5E483A460DF1070103F0A0FC44
:1053300000BF00BF00BF47EC404000BF00BF00BF40
:10534000C4238DF8073000BF00BF00BF4BEC408086
:1053500000BF00BF00BF00BF00BF00BF4BEC40401C
:1053600000BF00BF00BF4E483A460DF1070103F0F1
:105370007FFC00BF00BF00BF47EC404000BF00BF44
:1053800000BF8DF807A000BF00BF00BF47EC408002
:1053900000BF00BF00BF00BF00BF00BF4BEC4040DC
:1053A00000BF00BF00BF3E483A460DF1070103F0C1
:1053B0005FFC00BF00BF00BF47EC404000BF00BF24
:1053C00000BFEE238DF8073000BF00BF00BF47ECE1
:1053D000408000BF00BF00BF00BF00BF00BF4BEC5C
:1053E000404000BF00BF00BF2D483A460DF1070105
:1053F00003F03EFC00BF00BF00BF47EC404000BFD1
:1054000000BF00BF8DF8079000BF00BF00BF4BEC8E
:10541000408000BF00BF00BF00BF00BF00BF4BEC1B
:10542000404000BF00BF00BF1D483A460DF10701D4
:1054300003F01EFC00BF00BF00BF47EC404000BFB0
:1054400000BF00BF0E238DF8073000BF00BF00BFB4
:1054500047EC408000BF00BF00BF00BF00BF00BFDF
:105460004BEC404000BF00BF00BF0D483A460DF175
:10547000070103F0FDFB00BF00BF00BF47EC404049
:1054800000BF00BF00BF20238DF8073000BF00BF62
:1054900000BF4BEC408000BF00BF00BF02E000BF78
:1054A0000080084000BF00BF00BF4BEC404000BF81
:1054B00000BF00BF4A483A460DF1070103F0D8FB90
:1054C00000BF00BF00BF47EC404000BF00BF00BFAF
:1054D00036238DF8073000BF00BF00BF4BEC408083
:1054E00000BF00BF00BF00BF00BF00BF4BEC40408B
:1054F00000BF00BF00BF3A483A460DF1070103F074
:10550000B7FB00BF00BF00BF47EC404000BF00BF7B
:1055100000BFC8238DF8073000BF00BF00BF47ECB5
:10552000408000BF00BF00BF00BF00BF00BF4BEC0A
:10553000404000BF00BF00BF29483A460DF10701B7
:1055400003F096FB00BF00BF00BF47EC404000BF28
:1055500000BF00BF3A238DF8073000BF00BF00BF77
:105560004BEC408000BF00BF00BF00BF00BF00BFCA
:105570004BEC404000BF00BF00BF19483A460DF158
:10558000070103F075FB00BF00BF00BF47EC4040C0
:1055900000BF00BF00BF05238DF8073000BF00BF6C
:1055A00000BF47EC408000BF00BF00BF00BF00BF8E
:1055B00000BF4BEC404000BF00BF00BF08483A4668
:1055C0000DF1070103F054FB00BF00BF00BF47EC23
:1055D000404000BF00BF00BF03B0BDE8F08F00BF78
:1055E00000800840E0232DE9F04F83B08DF80730AC
:1055F00000BF00BF00BF4FF0000A4FF008084AECA0
:10560000408000BF00BF00BF00BF00BF00BF162426
:105610004AEC404000BF00BF00BF01220DF107016E
:10562000904803F025FB00BF00BF00BF012747ECF7
:10563000404000BF00BF00BF4FF002038DF80730AD
:1056400000BF00BF00BF47EC408000BF00BF00BFED
:1056500000BF00BF00BF4AEC404000BF00BF00BF1A
:1056600080483A460DF1070103F002FB00BF00BF7E
:1056700000BF47EC404000BF00BF00BF1C238DF8B7
:10568000073000BF00BF00BF47EC408000BF00BF35
:1056900000BF00BF00BF00BF4AEC404000BF00BFDA
:1056A00000BF70483A460DF1070103F0E1FA00BF70
:1056B00000BF00BF47EC404000BF00BF00BF4FF03D
:1056C000070B8DF807B000BF00BF00BF47EC40805C
:1056D00000BF00BF00BF00BF00BF00BF4AEC40409A
:1056E00000BF00BF00BF5F483A460DEB0B0103F05F
:1056F000BFFA00BF00BF00BF47EC404000BF00BF83
:1057000000BF12238DF8073000BF00BF00BF47EC79
:10571000408000BF00BF00BF00BF00BF00BF4AEC19
:10572000404000BF00BF00BF4E483A460DEB0B01A2
:1057300003F09EFA00BF00BF00BF47EC404000BF2F
:1057400000BF00BF4FF037028DF8072000BF00BF39
:1057500000BF47EC408000BF00BF00BF00BF00BFDC
:1057600000BF4AEC404000BF00BF00BF3D483A4682
:105770000DEB0B0103F07CFA00BF00BF00BF47EC4C
:10578000404000BF00BF00BF32238DF8073000BF8C
:1057900000BF00BF47EC408000BF00BF00BF00BF9C
:1057A00000BF00BF4AEC404000BF00BF00BF2D4813
:1057B0003A460DEB0B0103F05BFA00BF00BF00BFE0
:1057C00047EC404000BF00BF00BF4FF029098DF8F3
:1057D000079000BF00BF00BF47EC408000BF00BF84
:1057E00000BF00BF00BF00BF4AEC404000BF00BF89
:1057F00000BF1C483A460DEB0B0103F039FA00BF1D
:1058000000BF00BF47EC404000BF00BF00BF4FF0EB
:105810002D018DF8071000BF00BF00BF47EC40808E
:1058200000BF00BF00BF00BF00BF00BF4AEC404048
:1058300000BF00BF00BF0DEB0B0001463A46094810
:1058400003F016FA00BF00BF00BF47EC404000BFA6
:1058500000BF00BF8DF8079000BF00BF00BF47EC3E
:10586000408001E00080084000BF00BF00BF00BFD3
:1058700000BF00BF4AEC404000BF00BF00BF0DEBBF
:105880000B0001463A46914803F0F2F900BF00BF11
:1058900000BF47EC404000BF00BF00BF25238DF88C
:1058A000073000BF00BF00BF47EC408000BF00BF13
:1058B00000BF00BF00BF00BF4AEC404000BF00BFB8
:1058C00000BF0DEB0B0001463A46804803F0D0F9CB
:1058D00000BF00BF00BF47EC404000BF00BF00BF9B
:1058E0002B238DF8073000BF00BF00BF47EC40807E
:1058F00000BF00BF00BF00BF00BF00BF4AEC404078
:1059000000BF00BF00BF0DEB0B0001463A466F48D9
:1059100003F0AEF900BF00BF00BF47EC404000BF3E
:1059200000BF00BF39238DF8073000BF00BF00BFA4
:1059300047EC408000BF00BF00BF00BF00BF00BFFA
:105940004AEC404000BF00BF00BF0DEB0B0001461A
:105950003A465E4803F08CF900BF00BF00BF47EC39
:10596000404000BF00BF00BF8DF807A000BF00BFD0
:1059700000BF47EC408000BF00BF00BF00BF00BFBA
:1059800000BF4AEC404000BF00BF00BF0DEB0B0062
:1059900001463A464D4803F06BF900BF00BF00BF17
:1059A00047EC404000BF00BF00BF8DF8077000BF4C
:1059B00000BF00BF47EC408000BF00BF00BF00BF7A
:1059C00000BF00BF4AEC404000BF00BF00BF0DEB6E
:1059D0000B0001463A463D4803F04AF900BF00BFBC
:1059E00000BF47EC404000BF00BF00BF03238DF85D
:1059F000073000BF00BF00BF47EC408000BF00BFC2
:105A000000BF00BF00BF00BF4AEC404000BF00BF66
:105A100000BF0DEB0B0001463A462C4803F028F975
:105A200000BF00BF00BF47EC404000BF00BF00BF49
:105A30004FF010008DF8070000BF00BF00BF47EC1B
:105A4000408000BF00BF00BF00BF00BF00BF4AECE6
:105A5000404000BF00BF00BF0DEB0B0C3A46614653
:105A60001A4803F005F900BF00BF00BF47EC4040F3
:105A700000BF00BF00BFE1228DF8072000BF00BFBC
:105A800000BF4AEC408000BF00BF00BF00BF00BFA6
:105A900000BF4AEC404000BF00BF00BF0DEB0B0C45
:105AA0003A466146094803F0E3F800BF00BF00BF73
:105AB00047EC404000BF00BF00BF03238DF8073014
:105AC00000BF00BF00BF47EC408001E000800840FD
:105AD00000BF00BF00BF00BF00BF00BF4AEC404096
