:020000041000EA
:10000000002008205D0100101301001015010010F0
:100010001101001011010010110100101101001058
:100020001101001011010010110100101701001042
:100030001101001011010010190100101B01001026
:100040001D0100101D0100101D0100101D010010F8
:100050001D0100101D0100101D0100101D010010E8
:100060001D0100101D0100101D0100101D010010D8
:100070001D0100101D0100101D0100101D010010C8
:100080001D0100101D0100101D0100101D010010B8
:100090001D0100101D0100101D0100101D010010A8
:1000A0001D0100101D0100101D0100101D01001098
:1000B0001D0100101D0100101D0100101D01001088
:1000C0001D0100101D0100101D0100101D01001078
:1000D0001D0100101D0100101D0100101D01001068
:1000E0001D0100101D0100101D0100101D01001058
:1000F0001D0100101D0100101D0100101D01001048
:100100001D0100101D0100101D0100101D01001037
:1001100000BE00BE00BE00BE00BE00BEEFF3058004
:10012000103800BEF2EB8871385201106452011091
:10013000A801001090A31AE7D3DEFFFF42012110AF
:10014000FF010000508D0100793512AB4FF0000027
:100150002049086006C881F3088810474FF05040D6
:10016000006810B14FF00000F2E70FA40ECC002998
:1001700002D000F015F8F9E71749184A002000E00E
:1001800001C19142FCD1002080F30A8814498847BC
:10019000144988471449884700BEFDE701C901C2D8
:1001A0009A42FBD3704700BF645201101001002037
:1001B000303C0020848D011000000820040108203C
:1001C000888E011000100820001008200000000098
:1001D0007047000008ED00E0303C0020044600209D
:1001E0009D550010C90B001061550010F8B500BFF7
:1001F000064B0749C91A891048BF0131491003D07D
:10020000044B0BB101481847704700BF303C002039
:10021000303C00200000000008B5054B1BB105492B
:100220000548AFF30080BDE80840FFF7E1BF00BF1D
:100230000000000020430020F811011070477047B3
:1002400030B58BB068460EF0D7FD074DEC46BCE8E4
:100250000F000FC5BCE80F000FC59CE8030085E840
:1002600003000BB030BD00BF9C42002030B583B00E
:100270000446C368074D1A8B0749284605F0F8F86D
:100280000F2300930A2305222946606801F0AEFF80
:1002900003B030BDC0430020F811011010B5044672
:1002A0000068A168091A08B105F0DAFC204610BD03
:1002B00010B50446044B40F8103BFFF7EFFF034B2B
:1002C0002360204610BD00BFF82C0110D82C01106F
:1002D00010B50446FFF7ECFF1C21204605F0C0FCDA
:1002E000204610BD70477047024A0260024A026011
:1002F000704700BFDC2D0110C42D011070470000B5
:100300002DE9D043044690469946006B10F014FF47
:1003100006460F460022114B4046494603F02CFE8C
:1003200002460B463046394603F0FEFD03F098FEC8
:1003300007EE900A206394F82C3007EE103AB8EEDE
:10034000C77AF4EEC77AF1EE10FA05DB00232363D7
:10035000637C227C62742374BDE8D0830000244057
:10036000704710B50446FFF7BFFF1021204605F087
:1003700077FC204610BD00B583B0844608469CF843
:1003800028300093BCF80630BCF80420DCF81010CC
:1003900001F02CFF03B05DF804FB30B58BB00446D0
:1003A0000D460DF10C0C8E46BEE80F00ACE80F00B8
:1003B0009EE807008CE80700E389227C0192009305
:1003C000A389E288A188284601F0B8FEE389627C0F
:1003D00001920093A389E288A188284601F029FEB2
:1003E000A188A38901EB5301A3695B08C3EBC30296
:1003F000E388E08903EB5003607C0090043B8A1A99
:100400006169284601F0F2FE0BB030BD08B5034625
:10041000024652F8080B904203D09968013105F06A
:100420001FFC08BD10B50446044B40F8103BFFF715
:10043000EDFF2046FFF758FF204610BDF42D0110B8
:1004400010B50446FFF7EEFF2C21204605F008FC0E
:10045000204610BD10B50446044B40F8143BFFF78E
:10046000D5FF2046FFF740FF204610BD0C2E01109F
:1004700010B50446FFF7EEFF3421204605F0F0FBEF
:10048000204610BD08B50B68002B0EDB934206D941
:100490005000B3EB420F02D20860002808DB086866
:1004A000013009D406F008F908BD044806F06CFBD9
:1004B0006FF000430B60F2E706F02EFB0412011010
:1004C00008B5012A03D022B110F09CF801E00B78A6
:1004D000037008BD70B582B004460E46551A0195EA
:1004E0000F2D0DD800942A4631462068FFF7E8FF0B
:1004F00000220092019B63602168CA5402B070BD63
:10050000002201A9FFF7BEFF2060019BA360E9E77D
:1005100010B504460B4600F10802026009685A68EB
:100520004FF000030A44FFF7D5FF204610BD2DE928
:10053000F04190B006460F4609AC0D460FCD0FC4F2
:1005400095E8070084E80700F38996F828200192CF
:100550000093B389F288B188384601F06AFDF469E6
:1005600006F1140806E002A8FFF750FF204606F047
:10057000EDF90446A0451AD004F1100102A8FFF7D6
:10058000C7FFA56A08952969B088AA88B6F806C089
:10059000EB8895F82850009563440244384601F0F2
:1005A00025FEE0E702A8FFF731FF05F05BFB10B086
:1005B000BDE8F08170B505460C4674B1E168284687
:1005C000FFF7F8FFA66804F11000FFF71FFF2C21CA
:1005D000204605F045FB3446EFE770BD10B50446F4
:1005E000054B40F8103BA169FFF7E4FF2046FFF7F9
:1005F0007BFE204610BD00BF242E011010B504461E
:10060000FFF7ECFF2C21204605F02AFB204610BD09
:10061000002070474AB1012A0BD0012A0BD0032ACF
:1006200005D022B9054B036001E0044B03600020B4
:1006300070470160FBE70160F9E700BF342E01104D
:1006400008B500680368DB689847002008BD10B54E
:10065000006803681C69D1E90023A047002010BD91
:10066000032A05D8DFE802F002060804044B036001
:10067000002070470160FBE70B680360F8E700BFEC
:10068000542E011008B522B1012A06D0FFF7E8FF69
:1006900001E0034B0360002008BD0160FBE700BFE1
:1006A000542E0110032A05D8DFE802F002060804E0
:1006B000044B0360002070470160FBE70B68036098
:1006C000F8E700BF742E011008B522B1012A06D048
:1006D000FFF7E8FF01E0034B0360002008BD016065
:1006E000FBE700BF742E011010B50446836813B1F8
:1006F000032201469847204610BD10B50446006805
:10070000A168091A08B105F0ABFA204610BD30B453
:100710000022C261026242628262C262026342637A
:100720008263C263026442648264C2640265426599
:100730008265C26502664266826600F18404C46610
:1007400001240467426782674FF07E5CC0F87CC07A
:10075000C0F88020C0F8842000F1A005C0F88850BF
:10076000C0F88C40C0F89020C0F89420C0F898C021
:10077000C0F89C20C0F8A020C0F8A420C0F8A82091
:10078000C0F8AC20C0F8B020C0F8B420C0F8B82041
:10079000C0F8BC20C0F8C020C0F8C420C0F8C81001
:1007A00030BC704738B50446002303604360836063
:1007B000C3608B6833B10D4602229847EB68E36053
:1007C000AB68A360204638BD2046FFF78DFF05F0DB
:1007D00049FA38B504460023036043608360C36070
:1007E0008B6833B10D4602229847EB68E360AB6833
:1007F000A360204638BD2046FFF776FF05F032FAA9
:1008000082B002460B46D0E90001CDE9000193E831
:10081000030082E80300DDE9000183E8030002B081
:10082000704738B505460C46FFF7EAFFAB68A2688B
:10083000AA60A360EB68E268EA60E36038BD30B5A7
:1008400085B004466846FFF7ADFF21466846FFF7CE
:10085000E8FF6846FFF748FF204605B030BD38B5D1
:1008600005460C46FFF7CCFFAB68A268AA60A36000
:10087000EB68E268EA60E36038BD30B585B00446F5
:100880006846FFF7A6FF21466846FFF7E8FF68467F
:10089000FFF72AFF204605B030BD08B50846910095
:1008A00005F0DEF908BD08B50168426800F11803DB
:1008B000994201D0FFF7F1FF08BD08B5084618219D
:1008C00005F0CEF908BD38B505460C4601F1080023
:1008D000FFF70AFF21462846FFF7EFFF38BD38B57E
:1008E000054604E00C682846FFF7EDFF2146002985
:1008F000F8D138BD10B504468168FFF7F0FF626893
:100900009200002120680FF01DFB0023E360A3602C
:1009100010BD10B50446FFF7EDFF2046FFF7C3FFFB
:10092000204610BD10B50446B030FFF7E6FE04F1D6
:10093000A400FFF7E2FE04F18800FFF7EAFF04F1EC
:100940006C00FFF7E6FF04F15C00FFF7CDFE04F159
:100950004C00FFF7C9FE04F13C00FFF7C5FE04F1AF
:100960002C00FFF7C1FE04F11C00FFF7BDFE20467E
:1009700010BD000070B5ADF5B06D4FF4A073CDF8AB
:100980003435F023CDF838350123CDF83C354FF020
:10099000FF33CDF840350DF23455284601F014FBF5
:1009A0003BAC2946204601F077FE08AE2146304692
:1009B000FFF7ADFE01A8424B0360424B0360456068
:1009C0008460C66000230361436183613E4B036022
:1009D00000F034FC0DF5AA610023CDF850354B60D2
:1009E0008B60CDF85C35394BCDF85C35384BCDF8A4
:1009F00058350FA8FFF723FF0DF5AA60FFF774FE27
:100A00000DF5AC610023CDF860354B608B60CDF8FF
:100A10006C3501ABCDF860352E4BCDF86C352E4BD7
:100A2000CDF868351BA8FFF70AFF0DF5AC60FFF79E
:100A30005BFE0DF5AE610023CDF870354B608B6029
:100A4000CDF87C3501ABCDF87035244BCDF87C3535
:100A5000234BCDF878351FA8FFF70FFF0DF5AE60DB
:100A6000FFF742FE304600F0B7FE304600F0A7FE2A
:100A7000304601F035F901A800F022F93046FFF7C1
:100A800051FF184A22600DF5B06D70BD0DF5AA60DA
:100A9000FFF72AFE01A800F013F908A8FFF742FFAC
:100AA000104A3B9205F0DEF80DF5AC60FFF71CFE36
:100AB000F0E70DF5AE60FFF717FEEBE7EAE700BFE2
:100AC000D82C0110F82C0110002F01101106001075
:100AD0001506001041060010850600104F06001094
:100AE000C90600103832011070B584B005460C46B6
:100AF00001AB02AA03A901F0CFFF18B954B92046EF
:100B000004B070BD0646019A0299039801F092FF65
:100B10003446F4E72946014801F04CFE1C1201104E
:100B20002DE9F84F012001F057FF8346022001F024
:100B300053FF8246032001F04FFF8146092001F058
:100B40004BFF80460A2001F047FF07460B2001F0CB
:100B500043FF06460C2001F03FFF05460D2001F043
:100B60003BFF04465946104804F098FE51460F4892
:100B700004F094FE49460E4804F090FE41460D48AC
:100B800004F08CFE39460C4804F088FE31460B48D0
:100B900004F084FE29460A4804F080FE21460948F4
:100BA00004F07CFEBDE8F88F5012011064120110B1
:100BB000781201108C120110A0120110B412011051
:100BC000C8120110DC12011010B584B00F2002F021
:100BD00019FF00210D48FFF787FF0D4C00942346B5
:100BE00001220021062001F0B3FE0A4B00932346A8
:100BF00001220021072001F0ABFE04F01BFEFFF7ED
:100C00008FFF03A8FFF7B6FEFEE700BF78CE040013
:100C1000C084C61260426309094B1B7813B9084BA4
:100C200001221A70074B1B784BB1074A1388013316
:100C30001380064B064A1A60024B00221A70704756
:100C400000460020F4190020FA450020F445002059
:100C5000000020C108B5FFF7DFFF08BD4AB1012A37
:100C60000BD0012A0BD0032A05D022B9054B036013
:100C700001E0044B0360002070470160FBE7016066
:100C8000F9E700BFAC2E0110014B00221A7070472B
:100C9000004600204AB1012A0BD0012A0BD0032ABA
:100CA00005D022B9054B036001E0044B036000202E
:100CB00070470160FBE70160F9E700BFD02E01102B
:100CC00010B50446024B0360FFF7F2FA204610BD50
:100CD000002F011010B50446FFF7F2FF1C2120463B
:100CE00004F0BEFF204610BD84B00DF1100C0CE9DD
:100CF0000F009DED067ADDED007AB4EEE77AF1EEB5
:100D000010FA4CBF012300239DED027ADDED047A39
:100D1000B4EEE77AF1EE10FA4CBF012200229DED0D
:100D2000077ADDED017AB4EEE77AF1EE10FA4CBF06
:100D3000012000209DED037ADDED057AB4EEE77A1F
:100D4000F1EE10FA43EA020340EA030048BF40F024
:100D5000010080F0010004B0704770B582B0044615
:100D60000E46551A01950F2D0DD800942A4631468E
:100D70002068FFF7A5FB00220092019B63602168B9
:100D8000CA5402B070BD002201A9FFF77BFB2060AE
:100D9000019BA360E9E7000038B500F10803036098
:100DA00069B104460D4608460FF0A2FC4FF000035F
:100DB0002A1829462046FFF7D0FF204638BD0148B3
:100DC00005F0CAFEF0120110884228D0F0B583B0B9
:100DD00004460D464E68034653F8082B934209D04B
:100DE0008268B24208D3A6B96660236800229A5589
:100DF00003B0F0BD0F22F4E7019601A92046FFF7EA
:100E000041FB07462046FFF701FB2760019BA360DB
:100E1000E9E7324629682068FFF752FBE4E77047AC
:100E200010B504461448206014482060A180E28078
:100E3000A381BDF80830E38149082181520862810D
:100E40000F4B23609DF80C3023749DF810306374B1
:100E5000059904F11400FFF75BFB04E02046FFF75F
:100E600043FA04F0FFFE9DF8183084F82C3000237C
:100E70002363204610BD00BFC42D0110DC2D0110DE
:100E80000C2E011010B50446084611492160114985
:100E90002160A080E2804FF0000CA4F80CC0A4F800
:100EA0000EC0400820815208628120460A4A40F85C
:100EB000102B1946FFF72CFB04E02046FFF714FA2D
:100EC00004F0D0FE9DF8083084F82830204610BD8C
:100ED000C42D0110DC2D0110F42D011070B5A4B04B
:100EE000564C07AA56492046FFF756FF6368C3EBE6
:100EF000C30114314908C3EBC3031433C1F1A0018A
:100F00000525049503940F260296002201921422CF
:100F100000929BB2C82289B24A48FFF781FF08AC11
:100F20000EAA49492046FFF737FF009623462A4676
:100F300029464648FFF7A6FF2046FFF767FA0FACA1
:100F400015AA43492046FFF727FF009623461E2295
:100F500029464048FFF796FF2046FFF757FA16ACA0
:100F60001CAA3D492046FFF717FF009623462A4654
:100F70005A213A48FFF786FF2046FFF747FA1DAC93
:100F800023AA37492046FFF707FF009623461E2273
:100F90005A213448FFF776FF2046FFF737FA324AE6
:100FA000324B1360324B136046239380B423D380BB
:100FB000D22393813223D381232313815A23538154
:100FC0002C4B136000231375936102F11401D1615E
:100FD000116253622D2182F82810274A1370536042
:100FE0001372D36000240025C2E904456421117600
:100FF000538393839377D377204A1370536013728C
:10100000D360C2E904451176538393839377D377F2
:1010100024B070BD08A8FFF7F9F904F023FE0FA86B
:10102000FFF7F4F904F01EFE16A8FFF7EFF904F03D
:1010300019FE1DA8FFF7EAF904F014FE083E00208F
:1010400024130110004200203813011060430020D7
:1010500040130110C045002048130110C842002071
:1010600050130110F44200208C430020C42D0110C5
:10107000DC2D0110242E0110E03D0020403C00201A
:1010800038B544684D68A54208D32246006809680F
:1010900012B10EF0ABFE00B9601B38BD2A46F5E771
:1010A00008B5FFF7EDFF38B1002802DB4FF0010073
:1010B00004E04FF0FF3001E04FF0000008BD2DE9E3
:1010C000F8430746884615468C680E1D012202E04B
:1010D000A36826461C465CB104F110012846FFF7C0
:1010E000DFFFC0F3C01210F0800FF1D1E368F0E72A
:1010F000B1463AB1D8F80C30B34212D0304605F0C0
:101100003BFC8146294609F11000FFF7C9FF10F0AA
:10111000800F09D1C7F8009000237B603846BDE8F6
:10112000F8833C607E60F9E73C607E60F6E738B5A6
:101130000C461546114604F11000FFF7E9F9AB69BA
:10114000A36238BD04F056FE2C21204604F088FD31
:1011500005F07AFA04F08CFE04F084FD70B50546C3
:101160000E462C2005F0A8FA0446324601462846D1
:10117000FFF7DDFF204670BDF8B5044616461D4654
:1011800089B101272946069B1868FFF7E7FF054646
:10119000231D32460146384605F008FC63690133D9
:1011A00063612846F8BD031D9A4209D002F110017F
:1011B0002846FFF775FF10F0800F03D10027E1E705
:1011C0000127DFE70127DDE770B586B004460D464D
:1011D000164604A8FFF773FF059A6AB1039503AB9F
:1011E0000093334604992846FFF7C6FF2060012389
:1011F0002371204606B070BD049B23600023237139
:10120000F7E770B58AB00446154603AE3046FFF7DF
:101210007FF90995324604F1100101A8FFF7D4FFC8
:101220003046FFF7F3F80AB070BD03A8FFF7EEF8F9
:1012300004F018FD08B5FFF751FE08BD2DE9F04197
:101240002DED028BB6B00546FEF7F8FF09AC0FAAEC
:101250007B492046FFF7A0FD7A4A21467A48FFF7EE
:10126000D0FF2046FFF7D2F810AC16AA77492046E7
:10127000FFF792FD764A21467348FFF7C2FF2046EA
:10128000FFF7C4F817AC1DAA72492046FFF784FD8A
:10129000714A21466C48FFF7B4FF2046FFF7B6F8C5
:1012A0001EAC24AA6D492046FFF776FD6C4A214604
:1012B0006548FFF7A6FF2046FFF7A8F8694B25AE63
:1012C00093E8070086E8070028AF0C3393E807008F
:1012D00087E807003A463146684601F038FA624E20
:1012E000B446EE46BEE80F00ACE80F009EE80F00E3
:1012F0008CE80F00684601F05CFA01233372642326
:1013000073839627B783594BDFED597AC3ED007A83
:101310009FED588A83ED018A7268918807EE101A52
:10132000B8EEC77A37EE277AD28807EE902AF8EE21
:10133000E77A77EE887A83ED027AC3ED037A4E4B33
:101340002B931823ADF8B030ADF8B23000262D96AF
:101350002BAB0ECB684601F0D3F9DFF83881C446D9
:10136000EE46BEE80F00ACE80F009EE80F008CE8E8
:101370000F00684601F01DFAF023A8F81A30A8F80B
:101380001C703E4BDFED3E7AC3ED007A83ED018A9F
:10139000D8F80420918807EE101AB8EEC77A37EE15
:1013A000277AD28807EE902AF8EEE77A77EE887AE5
:1013B00083ED027AC3ED037A2EAA2E9656609660CC
:1013C0003196304B3193304B30937721E86800F001
:1013D000EAFD2EA8FFF788F932AA32965660966089
:1013E00035962A4B35932A4B34937821E86800F0E0
:1013F000DAFD32A8FFF778F936B0BDEC028BBDE814
:10140000F08109A8FFF702F804F02CFC10A8FEF701
:10141000FDFF04F027FC17A8FEF7F8FF04F022FCFC
:101420001EA8FEF7F3FF04F01DFC2EA8FFF75CF9E1
:1014300004F018FC32A8FFF757F904F013FC00BFC2
:10144000B8260110604300208C4300206013011077
:10145000C8420020EC230110C04500206413011095
:10146000F4420020182F0110E03D002078420020B7
:101470000000C84200001643E83300203442002038
:1014800000007043550C00105D0C0010890C00101A
:10149000950C0010403C002010B582B0044600219D
:1014A000406800F0ADFD2046FEF7E0FE0F230193FB
:1014B0006423009332221146606800F03FFE6068AA
:1014C00000F05AFE02B010BD2DE9F04FA1B0164653
:1014D0001F46FEF7B5FE8A4DD5E904AB0022894BC5
:1014E0003046394602F048FD8046894652465B4602
:1014F00002F01AFDC5E90401834B93ED007A834A9B
:10150000D2ED007A37EE277A83ED007AAB8B07EEC7
:10151000903AF8EEE77A77EE877AFCEEE77A17EE04
:10152000903A9CB2AC836B8B07EE903AF8EE677AF8
:1015300007EE104AF8EE476A754BC3ED007AC3ED2B
:10154000016A6A68918807EE101AB8EEC77A37EE1A
:10155000277AD28807EE902AF8EEE77A77EEA67A15
:1015600083ED027AC3ED037A6A4B1B7853B16A4D5F
:10157000688B02F083FD42464B4602F0E9FC02F024
:10158000B3FD6883644A518B07EE901AF8EE677AD0
:10159000938B06EE903AF8EE666A604BC3ED007AE4
:1015A000C3ED016A5268908807EE100AB8EEC77A58
:1015B00037EE277AD28807EE902AF8EEE77A77EEB0
:1015C000A67A83ED027AC3ED037A092906D8544B33
:1015D00000221A70504B4FF49B725A834C4D4F4B64
:1015E0000FCB8DE80F0095E80F00FFF77DFB48B1AA
:1015F0004B4B1B7833B94A4B01221A70494A138866
:1016000001331380962C08D9474B01221A703C4BAA
:1016100096229A833C4B00221A60444C32463B4649
:10162000D4E9000102F080FCC4E90001404D3246DB
:101630003B464049284603F01BFF04AC0AAA294652
:101640002046FFF7A9FB21463B48FFF7BDFB20469C
:10165000FEF7DCFE394B1A883949284603F008FFAB
:101660000BAC11AA29462046FFF796FB21463548C8
:10167000FFF7AAFB2046FEF7C9FE2C4BD3E9002357
:101680003149284603F0F4FE12AC18AA2946204638
:10169000FFF782FB21462D48FFF796FB2046FEF719
:1016A000B5FE204B1A882A49284603F0E1FE19AC02
:1016B0001FAA29462046FFF76FFB21462548FFF762
:1016C00083FB2046FEF7A2FE32463B462248FEF749
:1016D00017FE21B0BDE8F08F04A8FEF797FE04F0D6
:1016E000C1FA0BA8FEF792FE04F0BCFA12A8FEF7AE
:1016F0008DFE04F0B7FA19A8FEF788FE04F0B2FADE
:10170000E03D002000005940F4450020F819002079
:101710007842002000460020403C00203442002057
:10172000FF450020FC450020F4190020003E002069
:10173000C04400206813011070430020FA450020C7
:1017400074130110D842002080130110D0450020EE
:101750008C130110044300200042002008B5FEF75E
:101760006EFD08BD0B0143EA421343EA8113836314
:1017700029B1416B01F0380100F5815359612AB15B
:10178000436B03F0070300F581504361704710B4C9
:1017900083B000210DF1070209E0836913F0100FF7
:1017A000FBD10468134603F8014B01311A460029A6
:1017B000F3D09DF8070003B05DF8044B704700209C
:1017C000704740680138704708B5836813B1C36833
:1017D000984708BD05F00CFA10B5044600F1B002B8
:1017E0000C4B1A600C49212001F07CFA01212120C8
:1017F00001F066FA002201210848FFF7B3FF04F167
:10180000A402074B1A6004F11C00FFF7DDFF002063
:1018100010BD00BFB8430020591900100000074058
:101820009442002003684068984214BF00200120C1
:10183000704708B5836813B1C368984708BD05F0C1
:10184000D7F900B583B0CDE9002383682BB1C36815
:101850006946984703B05DF804FB05F0C9F910B577
:10186000844644680368E31A6FF00040C01A884257
:101870000BD38B4200D31946C818DCF80030E41AA9
:10188000A04208D3002803DB10BD104605F07CF908
:101890006FF00040F8E76FF00040F5E710B5044640
:1018A000006810B1616804F0DBF9204610BD41B159
:1018B00008B50846002902DB04F0FEFE08BD05F06D
:1018C0002BF90020704700002DE9F04385B0044655
:1018D0008946174A0121FFF7C2FF0746D4F8008066
:1018E0006668A6EB080601462046FFF7E0FF0546BE
:1018F00001900297039499F800308355002E11DC73
:1019000001362E44CDF80480A368A3EB08030293AC
:1019100001A8FFF7C3FF256066603D44A56005B0E0
:10192000BDE8F083324641460EF06CFEE8E700BFAA
:101930009C13011010B5044643688268934208D096
:101940000A781A704368013343602046FFF739FF75
:1019500010BDFFF7B9FFF8E70F4B9B6913F0100FAD
:1019600018D100B583B00C48FFF711FF8DF80700C0
:101970000DF10701094B1868FFF7DCFF084A1368EF
:1019800001331360044B9B6913F0100FEBD003B0CD
:101990005DF804FB704700BF00000740B84300201B
:1019A000203E002030B58646036853F82100B8B1C8
:1019B000036800E02346147893F804C0A4450FD0D0
:1019C0001C6864B1DEF8040094F804C0BCFBF0F5B8
:1019D00000FB15CC18466145ECD0002000E0204605
:1019E00030BD08B50A46C36843B9806880B192F833
:1019F00000C003799C450BD00068F7E70B7841687D
:101A0000B3FBF1FC01FB1C31FFF7CCFF00B1006818
:101A100008BD08B5FFF7E5FF003818BF012008BD75
:101A200010B582B01446182004F046FE0021016073
:101A300022680192127802718160C1600161416186
:101A400002B010BD036853F8213033B11B68136036
:101A5000036853F821301A6070478368136082600E
:101A6000136883B110B444681B79B3FBF4FC04FB26
:101A70001C33046844F8232050F8083B43F8210045
:101A80005DF8044B704750F8083B43F8210070475D
:101A900010B50446416811B10068FEF714FF2046F6
:101AA00010BD08B5B1F1005F03D2880004F004FE58
:101AB00008BDB1F1804F01D305F03EF805F02CF8D8
:101AC00030B583B00D46002201A8FFF7EAFF0446B7
:101AD000AA0000210EF036FA204603B030BDF8B55A
:101AE00007460C46012906D0FFF7EAFF0546BB680A
:101AF0000020B86011E00546002345F8183FF6E7DE
:101B0000B9681960394641F8083F45F8221019684C
:101B1000A1B145F82030104633468BB11E681A79C2
:101B2000B2FBF4F104FB112255F822100029E7D092
:101B30000968196055F822201360EDE71046EBE7BD
:101B40003846FEF7B0FE7C603D60F8BD2DE9F043FD
:101B500087B004460D4617461E4600F11008CDF822
:101B60001080D0F81490CDF814900E9B0093C368A9
:101B70004268414602A805F0A9F89DF8083053B123
:101B80004FF0000203992046FFF7A9FF6368B7FBF7
:101B9000F3F503FB157500230493324629462046CE
:101BA000FFF750FFE3680133E360304607B0BDE85C
:101BB000F083B8F1000F01D0C8F8049004F052F897
:101BC000F0B587B005460C460F784368B7FBF3F6CF
:101BD00003FB16763B460A463146FFF7E3FE30B17B
:101BE000006820B100F10804204607B0F0BD04945D
:101BF000029505AB04AA0D492846FFF711FF0346DD
:101C00000390012200923A4631462846FFF79EFF94
:101C10000023039300F1080402A8FFF739FFE3E76C
:101C200002A8FFF735FF04F01DF800BF302F0110A8
:101C300070B582B00446A430FFF7F4FD20BBD4F8A1
:101C4000A430D4F8A86000E06B1C1D46B34213D04A
:101C50001B788DF807300DF1070104F16C00FFF7D8
:101C6000D8FE0028F0D00DF1070104F16C00FFF759
:101C7000A7FFFFF7DEFDE7E7D4F8A430D4F8A820EB
:101C8000934201D0C4F8A83004F1B000FFF7CAFDB8
:101C900020BBD4F8B030D4F8B46000E06B1C1D4613
:101CA0009E4213D01B788DF807300DF1070104F127
:101CB0008800FFF7AEFE0028F0D00DF1070104F117
:101CC0008800FFF77DFFFFF7B4FDE7E7D4F8B030F9
:101CD000D4F8B420934201D0C4F8B43002B070BD3F
:101CE0002DE9F04F2DED028B87B0044601F0EAFD9F
:101CF000E1B14FF47A7200230FF02EFA02F0D0F91E
:101D00000022614B02F05EF98046894601F0DAFD5F
:101D10000025059504952E46284603959FED587B92
:101D20008DED007B2F465BEC17AB52E04FF47A73DE
:101D3000B0FBF3F0E2E7554BA3FB0030800902F063
:101D4000AFF90022504B02F03DF902460B4643EC3E
:101D5000182B42464B4602F0FBF880468946024665
:101D60000B465046594602F0DFF882468B46424603
:101D70004B46DDE9000102F0D7F8CDE900014FF054
:101D80001132434B5046594602F00EFAB8BB049B41
:101D90009E1BC4F8C06001F095FD4FF47A720023D9
:101DA0000FF0DAF9064604F14C00FFF70DFD01379C
:101DB00001F088FD4FF47A7200230FF0CDF9049002
:101DC00001F080FD4FF47A7200230FF0C5F959EC51
:101DD000188B039BC01AC4F8BC0001F073FD4FF4CC
:101DE0007A7200230FF0B8F9039001F06BFD00291F
:101DF000A1D04FF47A7200230FF0AEF99FE74FF0B5
:101E00001132234B5046594602F0A2F882468B46C7
:101E1000059BED1AC4F8C45001F054FD4FF47A72DA
:101E200000230FF099F905904FF01132184B04F18F
:101E30005C00FFF706FD2046FFF7FAFE01F042FDC9
:101E40004FF47A7200230FF087F905460022114BF8
:101E5000DDE9000102F094F9002890D027833B4689
:101E6000A4220D490D4803F019FD0D4803F0E7FCCD
:101E70009FED037B8DED007B002780E7AFF30080B3
:101E8000000000000000000000408F40D34D6210B1
:101E90001111913F0000F03FB81301101014011010
:101EA0003414011038B50446002303604360836096
:101EB000C3608B6833B10D4602229847EB68E3603C
:101EC000AB68A360204638BD2046FEF70DFC03F04A
:101ED000C9FE70B50E461546182004F0EDFB044609
:101EE00000230360337800F8043F29460430FFF7ED
:101EF000D9FF0BE003F07EFF1821204603F0B0FE6F
:101F000004F0A2FB03F0B4FF03F0ACFE204670BD6A
:101F10002DE9F04184B006460D4602910A9A194611
:101F20002846FFF7D6FF04460390021DE96869B909
:101F3000AB6800E01B684BB194F804C093F804E070
:101F4000E645F7D133600023337120E094F8048034
:101F50006B68B8FBF3F703FB178759B14346394663
:101F60002846FFF71FFD28B103681BB1336000232B
:101F700033710CE00123009323464246394628463C
:101F8000FFF7E4FD0023039330600123337102A8BF
:101F9000FFF77EFD304604B0BDE8F08102A8FFF7F0
:101FA00077FD03F05FFE00B587B08DF80F1000924B
:101FB0000DF10F034FF0000200F1880104A8FFF7B4
:101FC000A7FF07B05DF804FB38B504464568036811
:101FD00003FB05F585610121284602F01BF920610C
:101FE000A3683BB960612A46C02160690DF0AAFF71
:101FF000002038BD0121284602F00CF96061F2E7AB
:1020000008B5826900690DF09DFF002008BD30B45D
:1020100004688C4209D94568954208D9006902FBD9
:1020200004114354002030BC70470320FBE7032019
:10203000F9E72DE9F04704460D4616469946DDF8C6
:1020400020A09DF8247003688B4214D34368934208
:1020500014D3B1B1BAB100234BE03B4608EB060202
:1020600029462046FFF7D3FF08F10108D045F4D3F5
:102070004FF0000813E04FF00008F7E74FF00008BA
:10208000F4E78846F2E79046F0E73B4608EB0602A5
:1020900005EB09012046FFF7BAFF08F10108D0451A
:1020A000F3D34FF0000808E03B46324608EB050149
:1020B0002046FFF7ACFF08F10108C845F4D34FF004
:1020C000000809E03B4606EB0A0208EB0501204642
:1020D000FFF79DFF08F10108C845F3D30020BDE8D4
:1020E000F08721699A19206800FB02528F5401334E
:1020F0009BB25345F5D300230AE0216903EB060C9C
:10210000206805EB090200FB0C228F5401339BB2BF
:102110005345F2D32069236806FB03534A463946E8
:1021200018440DF00FFF20695644236803FB065541
:102130004A46394628440DF005FFCFE72DE9F04720
:102140000546884617461E46DDF820909DF824A0D7
:1021500000240CE0286904EB070C2B6803FB0C8CB3
:102160003246514660440DF0EDFE0134A4B24C45B8
:10217000F0D30020BDE8F087036942690261436142
:1021800000207047F0B51C469DF8145001F07F0305
:1021900011F0600101D0203BD9B2C1EBC101124B5B
:1021A0000B444FF0000E18E00131C9B2072910D8D6
:1021B00013F80EC04CFA01FC1CF0010FF4D00E19FC
:1021C0000EEB020C076807FB06CC066906F80C50FC
:1021D000EAE70EF1010E5FFA8EFEBEF1060F01D89E
:1021E0000021E3E70020F0BD342F01102DE9F0417C
:1021F00082B007460C4615461E469DF8208008E032
:102200000134CDF8008033462A463846FFF7BAFF3E
:10221000073521780029F3D1002002B0BDE8F08114
:10222000002070470020704700E020BF8369092B21
:10223000FBDC00207047000008B5102906D80368B1
:1022400023F4F03343EA4131016008BD024B034AF5
:10225000CD21034803F088F93C1401105C140110EF
:102260009814011000B583B0014600230193102398
:10227000019303F5FC03019301A8FFF7DDFF019B28
:1022800023F00C0242F00802019223F4F85222F0EB
:102290000C0242F0080201920C4A1A4042F0080275
:1022A00001920B4A1A4042F00801019142F00902E2
:1022B0000192084A1A4042F0090201920648184069
:1022C00040F00900019003B05DF804FBF3E0FFFE6D
:1022D000F3E07FFEF3E07FFCF1E07FFC2DE9F047C7
:1022E00084B00446C34B1860002707614FF0FF33EA
:1022F00043610223836107772D23436240F20D235C
:102300008362036B4FF0010808FA03F380F8463448
:10231000C36A08FA03F380F84534DFF814934D4696
:10232000B54E0FCE0FC596E8030085E8030041F2D5
:10233000100EC9F800E04FF4835CC9F808C041F200
:10234000B02AC9F810A0DFF8FC924D46AB4E0FCE74
:102350000FC596E8030085E80300C9F800E0C9F856
:1023600008C0C9F810A0DFF8A4924D46A44E0FCEC5
:102370000FC596E8070085E80700C9F800E0C9F82E
:1023800008C041F2300AC9F810A04FF40A53C9F846
:102390001830DFF8B4924D469A4E0FCE0FC50FCECF
:1023A0000FC50FCE0FC596E8030085E80300C9F8F6
:1023B00000E0C9F808C0C9F810A042F27A23C9F8B1
:1023C000343084F844840423636363685B69A360E6
:1023D0004FF480623946A06B0DF0B4FD394621E020
:1023E0008B0903EB830303EB0313D8B2C1F382031E
:1023F000C3EB0323844A82FB03C21A44DB17C3EBFB
:10240000A20301F0030202EB820202EB0212D2B23B
:10241000DBB21B0243EA0043A06B134340F82130B8
:102420000131C9B2FF29DBD1B4F8408494F84534B6
:1024300003FB08F8636B03FB08F808F103084FEA95
:10244000A80808F1070894F84634012B0AD04FF089
:10245000020908FB09F0800001F0C6FE20624FF07F
:10246000000E1AE04FF00309F3E7266A08FB0EF7A7
:1024700006EB870C654D0FCD46F82700CCF804100D
:10248000CCF80820CCF80C3007CDCCF81000CCF8F4
:102490001410CCF818200EF1010ECE45E5DB08240F
:1024A0005B4B1C600A20002101F022F9594B1C6093
:1024B000594B9C68E44314F00804F9D10A20002128
:1024C00001F016F9554B564A9A624FF001225A62B2
:1024D00000221A60534A1A60534A07CA04AD05E93C
:1024E00007004FF400325A604FF440329A6017E010
:1024F00004AB03EB840353F80C2C0C3A04EB840379
:102500005B00591C43EA0123444901EB820043600C
:1025100082F0010243F4803301EB82014B6001340D
:10252000022CE5D90C240CE00021204600F0EEFA44
:102530000121204600F014FB0121204600F002FB9F
:102540000134132CF0DD394803F079F90020FFF74E
:1025500089FE009020F4F03343F40053009320F4FC
:10256000FF0323F4C04343F4D00343F40053009328
:102570002F4D4FF0A04425602E4F67600626A660C1
:10258000009B23610120FFF76DFE009020F4F033E3
:1025900043F48043009320F4FF0323F4C04343F447
:1025A000D00343F48043009325646764A664009BD2
:1025B00023650224022C49DD1F4803F040F94FF047
:1025C000A0440723C4F80034C4F82C34C4F82434DD
:1025D0001A490C2000F086FB01210C2000F070FB52
:1025E0000123C4F85034164803F029F9002004B040
:1025F000BDE8F087A83E0020B43201109C320110E3
:10260000803201104832011093244992243E002068
:1026100000200240003002400000024000000C4058
:10262000E0E8F00003020550CC360110F014011070
:10263000583E002004006050FC140110F5000820F2
:1026400014150110403E0020703E00202646204612
:10265000FFF708FE009001340D4981FB0431A1EB26
:10266000E47101EB4101611A6846FFF7E5FD009B4B
:1026700023F4FC0343F4D0030093B30103F1A0431C
:102680001D60044A5A6006229A60009A1A6191E716
:10269000565555550400605010B50446164B03605E
:1026A000164B03604160002101614FF0FF3343612D
:1026B0000223836141770123C362036304224263DF
:1026C00081634FF4A070A4F83C04F021A4F83E14F8
:1026D000A4F84004A4F8421484F8443484F845244F
:1026E00084F8462484F84734072001F00BFA20468A
:1026F000FFF7F4FD204610BD2032011038320110E2
:1027000030B585B0044604A800E90E000025257008
:1027100065602572E56000220023C4E90423642378
:1027200023766583A583A577E5770C2003F0C4FFA6
:10273000019B0360BDF808308380BDF80A30C38078
:10274000039B836060602570204605B030BDF8B5FE
:1027500004460F4616460025057045600572C560A3
:1027600000220023C0E90423642303764583858384
:102770008577C5770C2003F09FFF3B680360BB881B
:102780008380FB88C380BB68836060600C2003F09B
:1027900093FF336803603379037173794371B379BD
:1027A0008371F379C371337A0372E0602570204638
:1027B000F8BD70470FB400B583B0049C074803F020
:1027C0003EF83CB105A90191204603F047F80448C2
:1027D00003F035F8012002F073FE00BF241501104C
:1027E00000120110EFF3108072B6064BD3E8CF1F32
:1027F00001220029FAD1C3E8412F0029F6D1BFF305
:102800005F8F7047EB4100200023034AC2E88F3FEF
:1028100080F31088704700BFEB41002070B505467B
:102820000C461646FFF7DEFFE208A95C04F0070C31
:10283000012303FA0CF3194205D1DBB20B43AB546D
:10284000FFF7E2FF70BD21463046FFF7B3FF0000FF
:10285000054A1078431CDBB21370172B02D91346BC
:1028600010221A70704700BF283600204FF0E02277
:10287000936843F00053936070470000002305E025
:10288000044A1A440021C2E88F1F01331F2BF7D9D5
:10289000704700BFE041002070B51646049D00EB74
:1028A000400C4FEA8C0C0CF1804C0CF5803CDCF8B1
:1028B0000420AA4201D2CCF80450A0F1040E5FFA21
:1028C0008EFEBEF1010F28D90CF540524FF4006482
:1028D00014601E4A52F8202042B11C4C6469B4FBBB
:1028E000F2F4013404EB4404033CFDD2DCF8002094
:1028F00082EA461202F0E0020CF580542260BEF13A
:10290000010F16D90CF500524FF400611160CCF89C
:1029100004500E4A42F8203070BD0129D4D10CF584
:10292000405203241460DCF8082012F0010FFAD0A2
:10293000DCE7DCF800204A4002F003022260DCF809
:10294000084001228A401442F9D0DBE750420020BF
:102950002DE9F04383B017460A9A934217D30546F0
:102960000E464FEA13484FEA0349002348464146C2
:102970000EF0F2FB89B14346002400943A463146FA
:102980002846FFF789FF012003B0BDE8F083074B1D
:10299000074A6321074802F0E7FD04460246002388
:1029A000484641460EF0D8FB0346E6E734150110D1
:1029B000D83601104815011010B582B04FF480349C
:1029C0000094FFF769FF02B010BD0000014B53F8FF
:1029D000200070475042002010B50446134BD3F836
:1029E000A43013F4807FF9D10420FFF7EFFF104AE1
:1029F000A2FB00239B090D4AC2F88C300A23C2F8BF
:102A00009C300023C2F890304FF0FF33C2F894306E
:102A1000C2F8A040054BD3F8A43013F0100FF9D042
:102A2000024BD3F8A800400910BD00BF00000140D0
:102A3000D34D6210F0B583B004460D461646134FD1
:102A40003B46012211460520FFF7B6FF00962B46B4
:102A5000224601210E4800F051FF06FB05F5B4FBAC
:102A6000F5F40C4B002202210420FFF7A5FF2346BA
:102A7000002201210520FFF79FFF3B460222002193
:102A80000620FFF799FF03B0F0BD00BF006CDC0229
:102A900000000540001BB7002DE9F04104460E463A
:102AA000174698464FF4A0751AE0013B9BB103FB13
:102AB00000FCB2FBFCFEA645F7D10CFB1E21002951
:102AC000F3D1104A02FB05F535603860C8F80030D4
:102AD0000120BDE8F081013808B10346E6E7013D79
:102AE0000F2D0CD942F6E06205FB02F2A2F5372366
:102AF000A3F5D87304498B42F1D80720ECE70020F6
:102B0000E7E700BF001BB70050F80C000C4B03EBCD
:102B1000800253F8203083F0400303F0C00302F535
:102B2000805CCCF80030C00000F1804000F520301F
:102B3000416002F540524FF480731360704700BF4C
:102B400004800340054A02EB800352F820205140E4
:102B500001F0010103F580531960704704800340C0
:102B6000064B03EB800253F8203083EA011303F095
:102B7000300302F580521360704700BF04800340A9
:102B8000064B9B68103043F82010BFF35F8F002383
:102B90000349C1E88F3F82F31088704700ED00E0E1
:102BA000E94100200048704700E400E008B5FFF765
:102BB000F9FF002304E04FF0803240F8042B01338A
:102BC0000C2BF8D908BD000008B50388DA0A1C2AC6
:102BD00006D15B050BD45B15023300EB430008BD47
:102BE000064B074A40F21511064802F0BDFC03F5FA
:102BF000FF1303F5FF531F33EDE700BF94150110DA
:102C000034370110AC15011008B5091A01F2FC7235
:102C100040F6FE739A4208D8081F11F0010F04D144
:102C2000C0F34A0040F4604008BD034B034A40F241
:102C30000711034802F098FCF41501102837011021
:102C4000AC15011008B5091A04394B08090B0AD153
:102C5000C1F30A0141F4704101806FEA43536FEA06
:102C60005353438008BD034B034A40F20F110348FE
:102C700002F07AFC2416011004370110AC15011083
:102C80004209064B53F8223000F01F000122824017
:102C900003EA0200003818BF0120704700E100E09D
:102CA0003AB1064B00F1600243F8221043F82010BD
:102CB00070472030014B43F82010704700E100E0DE
:102CC00008B50A4600F01F03012199404009FFF7AB
:102CD000E7FF08BD024B9B68103053F82000704797
:102CE00000ED00E070B505460C46EFF3108672B6B5
:102CF0000F4BD3E8CF1F01220029FAD1C3E8412F9F
:102D00000029F6D1BFF35F8FFFF7E4FF094B98422C
:102D100001D0A04205D1324621462846FFF730FFB8
:102D200070BD054B054AE721054802F01DFC00BFB8
:102D3000E94100201D010010341601104437011034
:102D4000AC1501102DE9F04706460D46EFF310884B
:102D500072B6504BD3E8CF1F01220029FAD1C3E845
:102D6000412F0029F6D1BFF35F8F4B4B9B6800F1D9
:102D7000100A53F82A70494B9F4207D0AF4200F027
:102D800087803C46464BFB1A2F2B06D942463946D4
:102D90003046FFF7F5FEBDE8F087FFF771FF81468B
:102DA00000213046FFF78CFFBFF35F8FEFF3058004
:102DB000C0B208B1824510D124F001040021A268FC
:102DC000954212D094F90630002B0DDB03EB430340
:102DD0002146334C04EB8304F1E7324B324A40F294
:102DE000F911324802F0C0FB2146954249D194F9CD
:102DF0000650002D2BDB05EB4502294B03EB82032C
:102E00009A68A260DA79E27193F90630A371002B17
:102E100010DA4BF60150A08005EB4502204B03EB86
:102E20008203234A11789971157049463046FFF79D
:102E300047FFABE705EB4503194800EB830004307F
:102E4000FFF7C2FE0146201DFFF7DEFEE3E798B95B
:102E500081B1FF238B714BF601538B80144A137899
:102E6000A3714AF6AA230E49641A644163431B0DF9
:102E70001370DAE7094FF1E70E49201DFFF7E2FE74
:102E8000D3E70D4B084A40F23B21084802F06CFBA7
:102E9000024F7BE7E941002000ED00E01D0100103A
:102EA0002C3600206C16011014370110AC150110DF
:102EB0000146002066360020A016011038B540F00B
:102EC0000104324BE31A2F2B31D8EFF30581C9B23D
:102ED000002933D0EFF3108E72B62D4BD3E8CF5FBD
:102EE0000122002DFAD1C3E8452F002DF6D1BFF302
:102EF0005F8F4AF6AA230246244D521B5241534388
:102F00001B0D4FFA83FC234B9B6853F82130A342DF
:102F10001BD00023032B32D803EB43011B4A02EBE7
:102F2000810292F90620624520D00133F2E71A4B64
:102F30001A4A4FF41D711A4802F016FB194B174A32
:102F400040F27721164802F00FFB124B9B68164A9D
:102F500043F82120154B1A78827183F800C00023B2
:102F60000B4AC2E88F3F8EF3108838BD074A02EB48
:102F70008101FF248C714BF601538B80EAE70C4BE7
:102F8000064A4FF42271064802F0EEFA2C36002071
:102F9000E941002000ED00E0A8160110E83601101C
:102FA000AC150110D01601101D01001001460020C3
:102FB000DC160110014B0B4403607047E041002018
:102FC00010B50446FFF744FC01462046FFF7F2FF28
:102FD000FF232371BFF35F8F10BD10B50446FFF7C9
:102FE00037FC01462046FFF7E5FFFF23237100234E
:102FF0006371BFF35F8F10BD10B50D4C09E00D4B31
:103000000D4A1A210D4802F0AFFA2046FFF7D8FF0B
:1030100008340B4B9C4209D22368002BF5D0012BBE
:10302000EDD12046FFF7D9FF0834F2E710BD00BF0D
:10303000203C0020E4160110843701100417011011
:10304000303C00200246EFF30583DBB2103B9908C9
:1030500004D0034803F00303136070470148F9E705
:1030600000800B4000000B4010B4846AA2EB040CFB
:103070000B1D50F823301B1B9C4504D3046A01230D
:103080008B401C4202D1043140F821205DF8044BF2
:10309000704741EA004070470D4B1A68EFF310810A
:1030A00072B6D2E8CFCF0120BCF1000FF9D1C2E84F
:1030B0004C0FBCF1000FF4D1BFF35F8F1A680023EF
:1030C000C2E88F3F81F3108840BF00200021704785
:1030D000BC4300202DE9F04F85B003A8FFF7B2FFF5
:1030E000954B984214BF00230123039901EB8303FE
:1030F000924A52F823402378994206D1054601228C
:103100008A4000F541535A602CE18D4B8D4A922143
:103110008D4802F029FAD4F8149006EB46074FEADE
:10312000C70A09EBC707D7F808B0D7F80C802846BC
:1031300000F09EFBB0EB0B0061EB0803002BC0F22C
:103140001A81B8F1000F64DB3B691A4600937F4B8C
:103150009A4230D0798889B2B4F90800FFF799FF14
:103160007969009B9847009001910099019A51EA72
:1031700002034ED01346002A29DABBEB010268EBAA
:103180000308BA60C7F80C8039F90A70002FC0F242
:10319000F280D4F814E007EB47030EEBC303996801
:1031A000DB68511A68EB0303002BC0F2E480A446ED
:1031B0002CF8087F17E07A69136900921046984747
:1031C00038B3009A1368009353680193CDE72846FB
:1031D00000F04EFB009B1A18019B43EB0108D0E75F
:1031E0009C463EF90B70002F0EDBBCF9003003EB60
:1031F00043034FEAC30B0EEBC3039868D968101A58
:1032000068EB01010029EBDA29F80A70ACF80060DC
:10321000B1E039F90A3023812369EFF3108272B6E5
:10322000D3E8CF0F01210028FAD1C3E8401F0028BE
:10323000F6D1BFF35F8FB4F9023029F80A30668007
:1032400021690023C1E88F3F82F3108893E023694E
:10325000EFF3108272B6D3E8CF0F01210028FAD124
:10326000C3E8401F0028F6D1BFF35F8FB4F8048095
:103270000FFA88F84FF6FF73A38021690023C1E895
:103280008F3F82F310881AE01F4630F90A60002E43
:103290000FDBB7F9003003EB43034FEAC30A00EB3F
:1032A000C3039968DA68BCEB01016EEB0202002AE5
:1032B000EADAA7F8008030F9098020F80960B8F14F
:1032C000000F5DDB606908EB48034FEAC30900EBC0
:1032D000C303D3F808C0D3F80CE004F10807B4F92D
:1032E0000860D4E70023A37104F1080CB4F9083096
:1032F00010E04FF0FF384FF0FF39C0E90289B4F910
:103300000800984205D0ACF80020B4F90800C85372
:1033100023811346B3F1FF3F35D0616903EB4302CC
:10332000D70001EBC20031F93220468816F4004F75
:10333000DFD18446EDE700BF00800B40384300201A
:1033400098170110B0370110C4170110D5300010C4
:10335000284600F08DFA3F1A66EB0106012F76F140
:10336000000628DA039A01239340EB63B4F908605E
:10337000002EBFF6D0AEA38813F4004F3FF467AF22
:10338000A379002BAED1B4F90830002B13DB6269AE
:1033900003EB430302EBC3039F68DE68B6F1FF3F14
:1033A00008BFB7F1FF3FD3D03A46334603992846CA
:1033B000FFF75AFECCE740BF05B0BDE8F08F00BF75
:1033C000F8B504460D4611460A4B984210D0002627
:1033D0002E44012707FA05F525623046FFF782FCE7
:1033E00039463046FFF76CFC04F501542560F8BD02
:1033F0000426EDE700800B40F8B504460E4617465C
:103400001D46C160FFF724FA164B03442361277061
:10341000ABB263814FF05042127862704FF6FF7288
:103420002281A280013B63804FF0000C08E00CF188
:10343000FF300CEB4C0E636923F83E000CF1010CDD
:10344000AC45F4D3084B9E4214BF0023012307EB85
:103450008303064A42F82340054A39463046FFF7BF
:10346000AFFFF8BDE041002000800B403843002052
:10347000D530001008B5054B1B690BB1034808BDDA
:10348000034B044A6521044802F06EF874360020AC
:103490000418011098370110C4170110F8B504463C
:1034A0009E460069EFF3108172B6D0E8CF6F012518
:1034B000002EFAD1C0E8465F002EF6D1BFF35F8F31
:1034C000B4F90250666905EB4500C70006EBC00081
:1034D000002D03DB36F907C0A4F802C04FF0000C42
:1034E0002369C3E88FCF81F31088654533DB0699E4
:1034F0000161079941618260C0F80CE0418889B29E
:103500000131C1F30E0101B9012141802846FFF7C5
:10351000C0FD2369EFF3108272B6D3E8CFCF01214B
:10352000BCF1000FF9D1C3E84C1FBCF1000FF4D17E
:10353000BFF35F8FA388F353A58021690023C1E8FF
:103540008F3F82F31088E368217801228A4003F5D7
:1035500001535A60F8BD4FF0FF30FBE770B582B001
:10356000064615461C469DF8203033B900F0AAF9EE
:10357000854264EB010100290ADB079B0193069B4E
:1035800000932A4623463046FFF788FF02B070BDFD
:103590000020FBE7F0B585B005460C4616461F46F1
:1035A000FFF768FF9DF828300293019700962A469E
:1035B0002346FFF7D3FF05B0F0BD03464089B0EBCB
:1035C000214F31DD10B50A14586902EB420200EBBD
:1035D000C2001A69EFF3108C72B6D2E8CF4F5FF0D9
:1035E000010E002CF9D1C2E844EF002CF5D1BFF355
:1035F0005F8F428892B289B28A420FD00020196947
:103600000022C1E88F2F8CF3108830B1DA681B7864
:103610000121994002F50153596010BD42F4004266
:10362000428001209871EAE70020704710B50446F7
:10363000FFF720FF2146FFF7C0FF10BDF0B583B0B4
:10364000EFF30583DBB2CBB904460D46861F41F18B
:10365000FF37B04271EB070301D20026374600F076
:1036600031F9301A67EB0103012873F1000308DA1E
:103670002046294600F038F903B0F0BD1848FFF79E
:1036800099F800230093174A30463946FFF782FF26
:10369000002819DAECE7144B1A68EFF3108172B6C0
:1036A000D2E8CFCF0120BCF1000FF9D1C2E84C0F16
:1036B000BCF1000FF4D1BFF35F8F1A680023C2E89A
:1036C0008F3F81F3108820BF084B5B6A9F42E2D88E
:1036D000064A926AB242CBD29F42C9D1DBE700BF11
:1036E0002818011099300010BC43002000000B4046
:1036F00038B504460D4600F0E5F8201845EB010109
:10370000002902DBFFF79AFF38BD4FF0FF306FF062
:103710000041F7E7F0B583B005460C46EFF30583AB
:10372000DBB293B1384B5B6A8B4209D3364A926A5B
:10373000824208D28B4201D0012002E0002000E04A
:10374000002003B0F0BD0120FBE7FFF793FEC76840
:103750000678384600F08CF82A1A64EB010104362A
:1037600057F826301B1A9A4271F1000112DB20BF74
:10377000254B5B6A9C4209D8234A926AAA4207D227
:103780009C4201D00120DCE70020DAE70020D8E7E6
:103790000120D6E7002300931C4A28462146FFF764
:1037A000F9FE002818DD184B5B6A9C4205D8164AC2
:1037B000926AAA4202D29C4200D120BFFFF736FF94
:1037C000114B5B6A9C421BD80F4A926AAA4219D2DB
:1037D0009C4213D00120B4E70B4B5B6A9C4209D892
:1037E000094A926AAA4207D29C4201D00120A8E766
:1037F0000020A6E70020A4E70120A2E70020A0E720
:1038000000209EE701209CE700000B40993000104B
:103810000048704700000B4010B50A4B1B6923B1EC
:103820000A210948FFF7C6FB10BDFFF7F1FF044668
:10383000032100F00BF81023032221460148FFF773
:10384000DBFDEDE774360020BC43002010B5054ACF
:10385000054C064BA04214BF1846581CFEF7DEFF6D
:1038600010BD00BF7818011000800B404C420020B2
:103870000246436A906A1946536A9942FAD17047E0
:10388000416A00E0416A9942FCD300E0416A9942F2
:1038900002D1816A9142F9D3704770B50646144649
:1038A0001D46FFF7E5FF021941EB0503824273EB6A
:1038B000010102D24FF0FF3213463046FFF7E0FF1E
:1038C00070BD000008B50248FFF7D2FF08BD00BF79
:1038D00000000B4008B502460B460248FFF7DDFF2B
:1038E00008BD00BF00000B4008B502460B46024869
:1038F000FFF7C6FF08BD00BF00000B4070B5049C79
:10390000344DB5FBF1FC344D1544344EB54237D837
:10391000B2FBFCF5A5F1100EBEF5987F36D803F189
:10392000FF3EBEF1060F37D804F1FF3EBEF1060F91
:1039300032D8BCEB121F35D8240344EA0344036891
:10394000002B35DB264B984242D00E2301229A40B1
:10395000244B1A6003F580531A60234B9B6832EAAC
:103960000303FAD10160856000F54052043221233F
:1039700013600368002BFCDAC4600823136070BD79
:103980001A4B1B4A11211B4801F0EEFD1A4B184A35
:103990001921184801F0E8FD184B154A1C2115485B
:1039A00001F0E2FD164B124A2321124801F0DCFD22
:1039B000036803F03F038B42C4D18368C3F30B0356
:1039C000AB42BFD1C36803F4EE23A342BAD1D6E71A
:1039D0000F23BBE7001BB70080E84BD380F8A93268
:1039E0000080054000200240000002409C180110A9
:1039F000D0370110EC1801103419011050190110C2
:103A00009C1901100C4B0D4A5A600D4BDB6813F4E6
:103A1000004FFAD1030143F0B54343F4FC03084AD5
:103A2000D2685340074A1A40074BDA60044BDB6800
:103A300013F4004FFAD17047002010400020FE5AC6
:103A400000001040F001FE5A00101040054A00EB43
:103A5000400302EB8303596000EB40008000012328
:103A6000135070470080104008B50023DB8A002205
:103A700042E800F212F4800F02D11021984708BDED
:103A800004219847FBE70000034BD3F82838002BAC
:103A9000FAD0BFF35F8F704700000E40002207E0AE
:103AA000054B13449B00BFF35F8F00211960013267
:103AB000072AF5D9704700BF0382031008B5FFF746
:103AC000EDFF08BD074B4FF42A621A604FF48D7268
:103AD000DA6003F50053044A1A60024B5B68002B5E
:103AE000FBDA70470080044000B0FA0008B50146D8
:103AF000024A0348FEF792FE08BD00BFB819011044
:103B0000F845002038B50446002501E00135640879
:103B100034B114F0010FF9D02846FFF7E7FFF5E7BD
:103B200038BD0000074B98420AD01A2301229A4060
:103B3000054B1A60054B9B6832EA0303FAD17047C4
:103B40001B23F3E7008007400030024000000240E2
:103B500038B5046B14F0010F01D1204638BD00F5D3
:103B6000405340F201321A63436A856A05EB8315BC
:103B7000AD020620FEF72AFF044BA3FB0030C00A6B
:103B8000B5FBF0F00021FFF7A5FEE6E7757B2B8F74
:103B900070B505460C461646FFF7DAFFEB6A5C4047
:103BA000344005F58153DC60286370BD70B505466F
:103BB0000C460620FEF70AFFC300B3FBF4F3013303
:103BC000DC0907D04FF6FE72944214D82646C3F3A0
:103BD000450400E001266E62AC62002211462846D0
:103BE000FFF7D6FF0620FEF7F1FE800004EB8614F7
:103BF000B0FBF4F070BD00244FF6FF76EBE7000059
:103C000049B10A22054B984214BF00200120044B01
:103C100023F8102070474FF48072F3E700800740CC
:103C2000EC45002038B504460D460620FEF7CEFED2
:103C3000F8B1114B9C421DD01A22012393400F4A28
:103C400013602046FFF76EFF00212046FFF7D8FFE4
:103C500029462046FFF7AAFFE36A83F0700303F0CA
:103C60007E0304F58152D36040F2013323630323C2
:103C7000A36438BD1B22E0E700800740002002401B
:103C800010B5044602E054F8043B9847014B9C42AF
:103C9000F9D310BDE01101107047000008B50248CB
:103CA000FFF7EEFF08BD00BFA0110110064B074A49
:103CB0001A6003F58053064A1A60064B9A68044B53
:103CC0009343FAD1704700BF002002407F3BEFEFE3
:103CD000F6FFF30300000240054BDB6CB3F5004F29
:103CE00000D07047034B4FF48022DA64F9E700BF3D
:103CF00000001150002011504FF0E022D2F8881D32
:103D0000034B0B43C2F8883D10EE3004704700BFF0
:103D100003033000054B6FF060421A60044B9B6850
:103D2000DB4333F06043F9D1704700BF00300240FD
:103D30000000024008B545F25320FFF795FE034608
:103D40000420984708BD08B545F25320FFF78CFEC4
:103D500003460120984708BD08B5FEF78FFD08BD52
:103D600038B5054CA168054D4FF4887228460CF013
:103D700049FCA56038BD00BF00ED00E00000002058
:103D800038B50420FEF722FE064BA3FB0035AD0C30
:103D9000002404E02946E0B2FFF758FE0134052C68
:103DA000F8DD38BD83DE1B4330B583B0264B0022DF
:103DB000C3F88420FFF786FE244B0122DA63224BEE
:103DC0005B6C012BFBD1214B03221A631E4B9B6BB7
:103DD000012BFBD10224009405231D4A01211D481B
:103DE000FFF78CFD052500952B461B4A01211B483A
:103DF000FFF784FD1A4B002221460420FEF7DCFD6C
:103E0000184C2346002201212846FEF7D5FD164D09
:103E10002B46002211460820FEF7CEFD2B4600223D
:103E200011460920FEF7C8FD234600221146062050
:103E3000FEF7C2FD2346002211460720FEF7BCFD17
:103E4000FFF79EFF03B030BD00000140003001408D
:103E5000002F685900000540008C8647008005400F
:103E6000001BB70080D1F008006CDC020A46C1F3E9
:103E70000A534BB300B58646A3F2FF33002B27DB72
:103E8000C3F13403002B1DDD0121A3F12000C3F198
:103E9000200C01FA00F021FA0CFC40EA0C0001FAB7
:103EA00003F3591E40F1FF3C002A04DA1EEB010126
:103EB0008E4642EB0C025B4260EB400C03EA0E00C4
:103EC0000CEA02015DF804FB002001F0004170479C
:103ED000002902DA00200249F4E700200021F1E77E
:103EE0000000F0BF86B003B451FC0804CDE9020124
:103EF00051FC0904CDE9040151EC0A04CDE90601A5
:103F000003BCF047BDE800504EEC00C4BDE80050D3
:103F10004EEC01C4BDE800504EEC02C400BD0000F0
:103F200000B5FFF7DFFF02E010FE30F4F8D441ECFB
:103F3000100443EC112400EE010410EE010480EEA5
:103F4000200451EC1004704700B5FFF7CBFF02E0EE
:103F500010FE30F4F8D441EC100443EC112400EED0
:103F6000010410EE210480EE200451EC300470476F
:103F700000B5FFF7B7FF02E010FE30F4F8D410B53B
:103F800041EC100443EC112451EC040453EC0524DF
:103F9000A0FB024C5FF0000EE0FB03CEE1FB02CE83
:103FA0004CEC20440024E1FB03E444EC30E480EEDC
:103FB000200451EC5004BDE81040704700B5FFF7F5
:103FC00091FF02E010FE30F4F8D441EC100443EC11
:103FD000112451EC2104A0FB01126FEA820252FB72
:103FE000100052FB12F252FB1000A0EBD07C53ECFD
:103FF00004245CFB13F153EC1524A1FB022001FB0C
:10400000030053EC4424A2EB000050FB1CF24FEAE7
:10401000111312EB017043EBE27140EA515020EAB8
:10402000915020F0070053EC7524A0FB023C53ECA8
:10403000752400FB03CC01FB02CC53EC0424ACEB55
:10404000824C40EA5C70A0F1010041EC400480EE3B
:10405000200451EC7004704700B5FFF743FF02E005
:1040600010FE30F4F8D441EC100480EE220410EE7F
:10407000B204704700B5FFF735FF02E010FE30F4E0
:10408000F8D440EC700400EE010410EE210480EE40
:10409000200451EC3004704700B5FFF723FF02E025
:1040A00010FE30F4F8D440EC600400EE010410EE91
:1040B000210480EE200451EC3004704700B5FFF776
:1040C00011FF02E010FE30F4F8D441EC800400EE61
:1040D000010410EE010480EE400410EE130470475A
:1040E00000B5FFF7FFFE02E010FE30F4F8D441EC1B
:1040F000800400EE010410EE010480EE400410EE96
:104100003304704700B5FFF7EDFE02E010FE30F417
:10411000F8D441EC100443EC112400EE010410EE3D
:104120003004C0F30070704700B5FFF7DBFE02E01B
:1041300010FE30F4F8D443EC102441EC110400EEEE
:10414000010410EE30F48CBF01200020704700BF46
:1041500000B5FFF7C7FE02E010FE30F4F8D443ECE0
:10416000102441EC110400EE010410EE30F42CBFD9
:1041700001200020704700BF00B5FFF7B3FE02E04A
:1041800010FE30F4F8D441EC100443EC112400EE9E
:10419000010410EE30F42CBF01200020704700BF56
:1041A00000B5FFF79FFE02E010FE30F4F8D441ECBA
:1041B000100443EC112400EE010410EE30F48CBF27
:1041C00001200020704700BF08B528B103460B440A
:1041D000034A934200D808BD0248FEF7EBFA00BF3D
:1041E00000000820DC19011070B50546084E304665
:1041F0000CF0C2FF28460AF027FB044630460CF0BC
:10420000AFFF29462046FFF7DFFF204670BD00BF05
:10421000203C0020F8B505460E46094F38460CF004
:10422000ABFF314628460AF081FA044638460CF0C6
:1042300097FF06FB05F12046FFF7C6FF2046F8BDB5
:10424000203C002070B504460D46094E30460CF067
:1042500093FF294620460AF0D9FD044630460CF06B
:104260007FFF29462046FFF7AFFF204670BD00BF05
:10427000203C002038B50446054D28460CF07CFF54
:1042800020460AF0E9FA28460CF06AFF38BD00BF64
:10429000203C00209A4200D288547047704720B1D9
:1042A00008B50A684968904708BD70470146002074
:1042B00008E000EB8000531C0B60137803EB400315
:1042C000A3F130000A681378303BDBB2092BF0D938
:1042D00070472DE9F04F83B005460E4693461F46C2
:1042E000DDF830A00D9CDDF838900F9B13F0030F24
:1042F00019D1A046019208E002F1010B3B4631467C
:104300002020A84708F101085A46C845F4D3DDF833
:1043100004B008E0013C02F101083B4631461AF8BE
:104320000400A8474246002CF4D10F9B13F0020F63
:1043300009D1104603B0BDE8F08F541C3B4631460E
:104340002020A8472246A2EB0B034B45F5D3F0E70C
:104350002DE9F04385B099460C9D0D9C9DF8388061
:10436000DDF840E0119F129E16F0020F21D17FB1BF
:1043700016F0010F0CD0B8F1000F02D116F00C0F9F
:1043800006D0013F04E04FF0300C05F804C00134C2
:10439000744501D21F2CF6D916F0010F09D0BC428A
:1043A00007D21F2C05D84FF0300C05F804C001349B
:1043B000F2E716F0100F14D016F4806F04D11CB180
:1043C000744522D0BC4220D00F9B102B33D00F9BC2
:1043D000022B3DD01F2C0ED84FF0300C05F804C036
:1043E00001341F2C07D8B8F1000F39D04FF02D0C35
:1043F00005F804C0013403960297019400954B46DA
:10440000FFF767FF05B0BDE8F083B4F1010C1DD0E4
:104410000F9B102B0ED064460F9B102BD7D116F09C
:10442000200FD4D01F2CD2D84FF0580C05F804C060
:104430000134CFE7023C16F0200FEDD11F2CEBD852
:104440004FF0780C05F804C00134C3E76446BBE7BD
:104450001F2CD0D84FF0620C05F804C00134B9E726
:1044600016F0040F05D04FF02B0C05F804C00134F2
:10447000C1E716F0080FBED04FF0200C05F804C0BD
:104480000134B8E7F0B591B0169C189D1B9E0CB98D
:1044900026F0100616F4806E1DD064B34FF0000EA7
:1044A00019E016F0200F24D04127BC445FFA8CFCA1
:1044B000ACF10A0C5FFA8CFC0EF101070EF1400E14
:1044C000EE440EF820CCB4FBF5FCAC4214D31F2F05
:1044D00012D8BE466446B4FBF5FC05FB1C4C5FFAE3
:1044E0008CFCBCF1090FDCD80CF1300C5FFA8CFCB1
:1044F000E2E76127D9E7274606961A9C0594199C9E
:10450000049403959DF85C400294019708AC0094D4
:10451000FFF71EFF11B0F0BD2DE9F04F95B00990E7
:104520000A910B929846DDF878B0DDF87C90229DD8
:10453000239F269E5BEA090201D126F0100616F49D
:10454000806424D05BEA09022FD000241FE016F01B
:10455000200F28D041231344DBB20A3BDBB204F125
:10456000010A04F150020DEB020404F8203C2A4633
:104570003B46584649460CF0EFFDAB4579EB070941
:1045800015D3BAF11F0F12D85446834689462A46DE
:104590003B46584649460CF0DFFDD2B2092AD6D830
:1045A0003032D3B2DBE76123D5E74FF0000A06963D
:1045B000259B0593249B049303959DF880300293DB
:1045C000CDF804A00CAB009343460B9A0A990998C6
:1045D000FFF7BEFE15B0BDE8F08F00000000000040
:1045E0002DE9F04F93B004460D4617461E46DDE90F
:1045F0001CAB52465B4650465946FFF787FD0028E4
:1046000040F0F3804FF0FF32AD4B50465946FFF774
:10461000CBFD002840F0E9804FF0FF326FF48013AB
:1046200050465946FFF784FD002840F0DE80002206
:10463000002350465946FFF77BFD002840F0E680F6
:10464000CDE906AB209B13F480630F9301D10623C1
:104650001E93DDE9062310461946CDE90A01079BA2
:1046600052EA030100F0DC80C3F30A50C3F31303E2
:10467000904643F07F5949F44019A0F2FF30FFF70C
:10468000FDFC7DA3D3E90023FFF776FC7CA3D3E9EF
:104690000023FFF749FCCDE908010022894B404681
:1046A0004946FFF755FC78A3D3E90023FFF764FCE4
:1046B00002460B46DDE90801FFF736FCFFF702FD75
:1046C0000890FFF7DBFC8046894671A3D3E90023FD
:1046D000FFF752FC00227C4BFFF726FCFFF7F2FCB1
:1046E0000A906DA3D3E9002340464946FFF744FCF6
:1046F000804689460A98FFF7C1FC69A3D3E90023E5
:10470000FFF73AFC02460B4640464946FFF720FCBD
:104710008046894602460B46FFF72EFCCDE90C0188
:104720000A9B03F2FF3300210022CDE90A121B0588
:104730000B9300230A9342464B4640464946FFF7F7
:10474000F3FBCDE9100142464B4600204FF080417B
:10475000FFF7FEFB8046894600225C4BDDE90C0139
:10476000FFF730FC00225A4BFFF7DEFB02460B46F8
:10477000DDE90C01FFF726FC0022564BFFF7D4FBC6
:1047800002460B46DDE90C01FFF71CFC02460B4616
:1047900040464946FFF7C8FB02460B46DDE91001DB
:1047A000FFF710FC00224C4BFFF7BEFBDDE90A23AC
:1047B000FFF7E2FB80468946CDE90A89DDE9062359
:1047C000FFF7F2FC50B1089B013B08930022404BDD
:1047D00040464946FFF7F6FBCDE90A01089B6333E3
:1047E000C62B46D84FF004081EE0209B04931F9B65
:1047F00003931E9B0293CDE900AB33463A4629460C
:10480000204600F0FDF813B0BDE8F08F9FED267B49
:104810008DED067BCDF818A00BF10043079311E74F
:10482000002308934FF00408209B13F4006F5FD01F
:10483000DDE90A1213460B4313D01DA3D3E900236D
:10484000DDE90601FFF79CFC002800F0B4801AA304
:10485000D3E90023DDE90601FFF76AFC002800F038
:10486000AA801E9A089B9A4238DDD31A013B1E93F8
:1048700036E04FF00508D7E7FB799F501344D33F4C
:10488000B3C8608B288AC63F61436F63A787D23F56
:1048900071A379094F930A401655B5BBB16B02401D
:1048A000EF39FAFE422EE63F000000000000000053
:1048B0002D431CEBE2361A3F0000000080842E419D
:1048C000FFFFEF7F0000F83F0000E03F00002C40BA
:1048D00000002440000018400000F03F00231E9319
:1048E000209B43F4806320934FF00008CDF8208094
:1048F0001F9B984569D2A3EB0809209B13F0020384
:104900000C9304D0B8F1000F01D04FF00009089BC0
:104910003BB1DDE90A23DDE90601FFF753FBCDE9F1
:1049200006010022002350465946FFF701FC0028EB
:104930004ED1209B23F400630493CDF80C901E9B72
:1049400002939DED067B8DED007B33463A4629466A
:10495000204600F055F8B8F1000F3FF454AF209B0B
:1049600013F0200F3CD04FF0450C00F10109334605
:10497000024629466046A047089981EAE172A2EB07
:10498000E1720523059308F1FF3304930023039399
:104990000A230293CB0F0193009233464A462946DD
:1049A0002046FFF76FFD0C9B002B3FF42CAF024617
:1049B000DDF87C901EE01E9B002B99D00F9B002BF6
:1049C00096D01E9B013B1E9392E74FF0000994E79F
:1049D000DDE90601024601F10043CDE90623A8E71F
:1049E0004FF0650CC1E702F101083346294620204B
:1049F000A0474246D31B4B45F5D3104603E700BF03
:104A00002DE9F04F2DED028B95B007900A9192465B
:104A10009B46DDE92089229D42464B464046494659
:104A2000FFF774FB002835D14FF0FF326FF480138D
:104A300040464946FFF77CFB00283AD14FF0FF3251
:104A4000B14B40464946FFF7AFFB002840D1AAA32F
:104A5000D3E9002340464946FFF7A6FB00284DD185
:104A6000A7A3D3E9002340464946FFF761FB00288E
:104A700044D10022002340464946FFF759FB002855
:104A80004AD100230B93249B13F4806F00F0B58070
:104A9000002454E0249B0393239B0293032301935C
:104AA0009A4B00935B4652460A990798FFF711FC10
:104AB0001BE1249B0393239B029304230193944BB8
:104AC00000935B4652460A990798FFF702FC0CE1F7
:104AD000249B13F0040F0ED08E4B042224990391D3
:104AE00023990291019200935B4652460A990798D6
:104AF000FFF7EFFBF9E0884B0322EFE7249B0493D9
:104B0000239B03930295CDE900895B4652460A999F
:104B10000798FFF765FDE8E042464B46002000217C
:104B2000FFF716FA8046894601230B93ABE704F1A1
:104B300050036B44302203F8202C013D01341F2C1C
:104B400001D8092DF3D840464946FFF7BBFA06467F
:104B5000FFF794FA02460B4640464946FFF7F8F93C
:104B60006E4B03EBC50393ED008B53EC182BFFF753
:104B700003FA02460B46CDE90823FFF7B5FA0746CC
:104B8000FFF78EFA02460B46DDE90801FFF7E0F970
:104B900002460B46CDE908230022614BFFF704FBD8
:104BA00068B301373846FFF77BFA02460B4651ECF3
:104BB000180BFFF7D1FA08B1013600276DBB30465C
:104BC000FFF75CFA02460B4640464946FFF7C0F93C
:104BD000074688460022524BFFF7AAFA00284CD11C
:104BE00000224F4B38464146FFF7DEFA002844D1F9
:104BF00016F0010F41D001363FE0062548E70022BC
:104C0000474BDDE90801FFF793FA0028D6D117B129
:104C100017F0010FD2D00137D0E71F2C17D8013D74
:104C2000404BA3FB0723DB08194603EB8303A7EBE9
:104C30004303621C303304F150000DEB000404F810
:104C4000203C092F02D90F461446E6E714461F2CD4
:104C50000AD86B1E45B104F150026A44302102F8B3
:104C6000201C1D460134F2E71F2C06D804F1500326
:104C70006B442E2203F8202C01341F2C17D82A4A0B
:104C800082FB0632F317C3EBA2031A4603EB83033E
:104C9000A6EB4303611C303304F150000DEB00041C
:104CA00004F8203C16460AB10C46E6E70C46249B65
:104CB00003F00303012B39D01F2C09D80B9B002BC9
:104CC00051D004F150036B442D2203F8202C013401
:104CD000249B0393239B029301940CAB00935B46AC
:104CE00052460A990798FFF7F4FA15B0BDEC028B0B
:104CF000BDE8F08FAFF300800000000065CDCD412E
:104D00000000000065CDCDC1FFFFEF7F441A011008
:104D1000481A0110381A0110401A011040380110C9
:104D20000000E03FCDCCCCCC67666666239BB3B178
:104D30000B9B1BB9249B13F00C0F12D0239B013B40
:104D40002393194606E004F150036B44302203F824
:104D5000202C01348C42AFD21F2CF4D9ACE723991C
:104D6000F8E72399F6E7249B13F0040F07D004F12A
:104D700050036B442B2203F8202C0134A8E7249B1A
:104D800013F0080FA4D004F150036B44202203F861
:104D9000202C01349CE700BF2DE9F04F8FB08046F6
:104DA00017460D938946002900F04F83002508E03F
:104DB0006C1C3B462A464946C0470D9B01330D9368
:104DC00025460D9B1878002800F042832528EFD156
:104DD00001330D9300261FE046F0010601320D92CB
:104DE000012318E046F0020601320D92012312E081
:104DF00046F0040601320D9201230CE046F008064D
:104E000001320D92012306E046F0100601320D92A8
:104E1000012300E000234BB30D9A1378203B102BA5
:104E2000F8D801A151F823F0FD4D0010154E0010E7
:104E3000154E0010094E0010154E0010154E0010B2
:104E4000154E0010154E0010154E0010154E001096
:104E5000154E0010F14D0010154E0010E54D0010DC
:104E6000154E0010154E0010D94D00100A930D9BE1
:104E70001A78A2F13003DBB2092B18D92A2A1BD0E9
:104E80000A9B0B930D9B1A782E2A25D00D9A137826
:104E9000683B122B5CD8DFE803F0495BAC5B3B5B03
:104EA0005B5B5B5B5B5B575B5B5B5B5BB1000DA85C
:104EB000FFF7FCF90B90E5E7189B1A1D18921B6889
:104EC000002B04DB0B930D9B01330D93DAE746F0C7
:104ED00002065B420B93F6E746F480665A1C0D927D
:104EE0005A78A2F13003DBB2092B0CD92A2ACDD192
:104EF000189B1A1D18921C6824EAE4730A930D9BF0
:104F000001330D93C2E70DA8FFF7D0F90A90BDE772
:104F100046F48071531C0D9353786C2B01D00E46D0
:104F200016E046F4407602320D9211E046F0800120
:104F3000531C0D935378682B01D00E4608E046F0C1
:104F4000C00602320D9203E046F4807601320D92E3
:104F50000D9B1878672856D82528C0F06C82A0F1E0
:104F60002503422B00F26782DFE813F05A02650244
:104F700065026502650265026502650265026502F9
:104F800065026502650265026502650265026502E9
:104F900065026502650265026502650265026502D9
:104FA00065026502650265026502650288016801A5
:104FB0008801650265026502650265026502650297
:104FC00065026502650265026502650265026502A9
:104FD000650271006502650265026502650265028F
:104FE0006502650265027100AF0171008801680108
:104FF000880146F4007601320D92A9E746F48076E6
:1050000001320D92A4E7782800F215826928C0F0D9
:105010001282A0F16902D2B20123934049F2410207
:10502000134214D113F0800F40F0DF8113F4806F2E
:1050300000F00182189B1A1D1892D3F800A00A9B59
:10504000002B40F090814FF0FF32534674E16F28FF
:105050003DD005D858283CD0622803D1022304E073
:10506000782838D026F010060A23582835D0692829
:1050700003D0642801D026F00C0616F4806F01D00E
:1050800026F0010669282BD0642829D016F4007F69
:1050900040F0968016F4807F40F0AE8016F0400F0E
:1050A00000F0BF80189A111D1891127805960B997F
:1050B00004910A99039102930023019300923B46C5
:1050C0002A4649464046FFF7DDF9054629E0082310
:1050D000CBE71023C9E71023C7E746F02006C6E751
:1050E00016F4007F21D116F4807F42D116F0400FD4
:1050F00058D0189A111D1891127882EAE271A1EB2A
:10510000E27105960B9804900A9803900293D20FCF
:10511000019200913B462A4649464046FFF7B2F9C4
:1051200005460D9B01330D934BE6189A073222F08A
:10513000070202F108011891516812680846002917
:1051400013DB08960B9C07940A9C06940493002397
:105150000593C90F0291009201903B462A464946A9
:105160004046FFF7D9F90546DBE7524261EB4100C3
:10517000E7E7189A111D1891126882EAE271A1EB13
:10518000E27105960B9804900A9803900293D20F4F
:10519000019200913B462A4649464046FFF772F984
:1051A0000546BEE716F0800F05D0189A111D18911C
:1051B000B2F90020A1E7189A111D189112689CE716
:1051C000189A073222F0070202F108011891089696
:1051D0000B9907910A990691002104930591029178
:1051E000D2E90023CDE900233B462A464946404602
:1051F000FFF792F9054694E7189A111D1891059644
:105200000B9904910A990391029300230193136867
:1052100000933B462A4649464046FFF733F9054688
:105220007FE716F0800F04D0189A111D189112888C
:105230003CE7189A111D1891126837E746281AD0D2
:10524000189B073323F0070303F108021892049612
:105250000B9A03920A9A0292D3E90023CDE9002324
:105260003B462A4649464046FFF7CAFB05460D9B8A
:1052700001330D93A5E546F02006E1E7672801D04C
:10528000472801D146F40066452801D0472801D1BE
:1052900046F02006189B073323F0070303F10802AA
:1052A000189204960B9A03920A9A0292D3E9002369
:1052B000CDE900233B462A4649464046FFF790F990
:1052C00005460D9B01330D937BE516F002061CD0BD
:1052D00001241898031D189305F1010A3B462A463C
:1052E00049460078C047AEB90D9B01330D93554632
:1052F00067E5551C3B4649462020C04723462A46C1
:105300005C1C9A45F5D81546E3E70123DDF82CA08F
:105310002A46F5E75246DDF82CA006E0561C3B462F
:1053200049462020C0472C463246651CA245F5D888
:105330009246D9E701330A46197811B1511E002A65
:10534000F8D1A3EB0A0316F4806B03D00A9A9342B8
:1053500028BF134616F0020407D00C940A9E2A4672
:105360005D469B4623E00A9A6FE6CDF830B02A46A8
:1053700025460B9C07E002F1010B3B4649462020E5
:10538000C04733465A465E1C9C42F4D8DDF830B024
:105390002C4633460C940A9E5D469B4607E01E460B
:1053A0000AF1010A541C3B464946C04722469AF876
:1053B000000020B1002DF3D0731E002EEFD10C9C05
:1053C00015465B461CB90D9B01330D93F9E40B9E0A
:1053D00006E0551C3B4649462020C04723462A4646
:1053E0005C1C9E42F5D81546EDE746F02106189B59
:1053F0001A1D18921B680596082204920A9A0392B5
:10540000102202920022019200933B462A4649460E
:105410004046FFF737F805460D9B01330D93D0E466
:105420006C1C3B462A4649462520C0470D9B01334C
:105430000D932546C5E46C1C3B462A464946C047A9
:105440000D9B01330D932546BBE4DFF82080ADE4CE
:10545000BD4208D37A1E3B4649460020C047284635
:105460000FB0BDE8F08F2A46F5E700BF9D4200105F
:105470000EB400B584B0014605AA52F8043B03926D
:1054800000924FF0FF320448FFF786FC04B05DF84D
:1054900004EB03B0704700BF9542001000B585B023
:1054A00002900391009313464FF0FF3202A9034884
:1054B000FFF772FC05B05DF804FB00BF9F420010CF
:1054C00000BEFDE70346094A126842B1074A106868
:1054D0000344074A934206D8044A13607047034ABC
:1054E00004491160F2E74FF0FF3070479842002006
:1054F0000000082004460020002070474FF0FF30D5
:105500007047000008B538B908461146044BD3E986
:10551000002300F035F908BD4FF0FF30FBE700BF76
:10552000C8370110431E012B09D810B50846144690
:1055300001230022214600F0DDF8204610BD4FF087
:10554000FF3070474FF0FF3070474FF0FF3070472B
:105550004FF0FF30704702288CBF002001207047B9
:1055600008B5FFF7ADFF000000B583B08C461946C3
:105570005AB11446064B019400936346024605480F
:1055800000F08CF90120FFF79BFF034B1C46F2E76C
:10559000501A0110601A01105C1A011010B5EFF3D7
:1055A0000583DBB203B100BEFEF778FB044C02E0DA
:1055B00054F8043B9847034B9C42F9D310BD00BFFD
:1055C000E0110110F811011008B5034608461B68E8
:1055D0001146984708BD0000F8B507460D46164627
:1055E000437D13B1002420460CE003681146284691
:1055F00098472EE03B7D10E03B6802211548984714
:10560000601C0134B44214DA002CF3DD2B1913F8BA
:10561000013C0D2B14BF002301232A5D0A2AF0D17F
:10562000002BEED1A042E7DA3B68211A28449847C4
:10563000E2E7B04203DA3B68311A28449847002E6B
:1056400007DD354415F8013C0D2B14BF0023012361
:105650003B75F8BD9038011038B50368BBB10546FD
:105660000B4B1C6806E0294651F8042B2046FFF737
:10567000B3FF24694CB12368002BFAD0054B1B689B
:10568000002BF0D0A342F4D1EDE700232B6038BD0E
:10569000884200209042002038B505460C460B6831
:1056A000802B05D023685A1C22601C44257138BD0C
:1056B0000846FFF7D1FFF5E708B5FEF703F9074AFB
:1056C000821841F10003002B03DB05480BF058FD65
:1056D00008BD4FF0FF326FF00043F6E740420F0085
:1056E000283C002008B502480BF03AFD08BD00BF79
:1056F000283C00202DE9F04383B006460D46904635
:105700001C46FFF7D9FF8146B5F1FF3F04D044B1F5
:10571000174F184B1C6807E030460AF0E9FF0546B2
:10572000F5E7154FF5E72469BCB12368002BFAD0E3
:10573000124B1B680BB1A342F5D12A4631462046D5
:10574000B847B8F1000FEED00A238DF807300122D8
:105750000DF107012046B847E5E7B9F1000F03D185
:10576000284603B0BDE8F083FFF7BCFFF8E700BFB1
:10577000D955001088420020C955001090420020E1
:105780002DE9F84307460E4691469846144B1C688F
:1057900007E0A36823B131463846984700281CDC4F
:1057A000246934B10F4D2D68002DF2D0A542F7D1F8
:1057B000EFE70D4B5B6A984508D80B4A926A4A4559
:1057C00009D2984502D06FF0010006E001200021C7
:1057D000FEF780F8DAE76FF00100BDE8F88300BF5C
:1057E000884200209042002000000B40094A1368C4
:1057F00002E003F110021B6943B113688342F8D140
:1058000031B90369136000230361704701B110606F
:10581000704700BF8842002010B5054B1C6800E0AF
:10582000246924B16368002BFAD09847F8E710BDCB
:105830008842002008B500F04FF9012008BD38B5B6
:1058400005460AF055FF044601231A46014628463C
:10585000FFF750FFFFF7E0FF204638BDF0B5A3B0DB
:1058600004460E46FFF728FF05460023019301AFCB
:105870003346224639460848FFF710FE04463846AC
:10588000FFF7EAFEFFF7C8FF15B9204623B0F0BDC9
:10589000FFF728FFF9E700BF995600100FB400B5D5
:1058A00083B004A951F8040B0191FFF7D7FF03B0AF
:1058B0005DF804EB04B0704782B08C46184B9842F8
:1058C00014BF00230123174A32F913308B4205D04D
:1058D0008DF807C000210DF107021CE00D238DF8A3
:1058E000073000210DF107020029F1D1836913F07F
:1058F000200FFBD1134613F8012B026001311A4629
:10590000F2E7836913F0200FFBD1134613F8012B44
:10591000026001311A460029F3D002B0704700BF7F
:1059200000800740EC45002010B483B000210DF149
:10593000070209E0836913F0100FFBD104681346D6
:1059400003F8014B01311A460029F3D09DF80700F6
:1059500003B05DF8044B704770B506460D46002451
:1059600005E0315D034B1868FFF7A6FF0134AC4238
:10597000F7DB70BDF0450020F8B507460E46002461
:1059800004E0651CFFF7D0FF38552C46B44205DA19
:105990000C4B1868836913F0100FF2D00A4B1B6888
:1059A0004BB1084B1B6850229A635A6B02F03802C5
:1059B00003F581535A610CB12046F8BD6FF0020423
:1059C000FAE700BFF04500204442002008B5054B2F
:1059D0001B6833B1044A126800219163034A1068BE
:1059E000984708BD44420020F0450020484200206E
:1059F000034B1A68936913F0080FFBD1704700BF7F
:105A0000F045002038B51B4B1B681B4A934205D05C
:105A10002124E0B1194B1B6813B138BD2224F8E7EB
:105A2000164B1860164B196016492046FDF75AF9B7
:105A300001212046FDF744F90E4B1B6850229A6362
:105A40005A6B02F0380203F581535A61E5E70B4ABD
:105A50001268002AE1D000259D6329462046FDF703
:105A60002FF908492046FDF76DF9044B1D60044BE2
:105A70001D60D2E7F045002000800740444200202E
:105A800048420020CD59001038B50D461C46104B39
:105A90001860101E05DB10F0020F15D00B21FDF76A
:105AA00035F8002C06DB14F0020F0FD00B21204636
:105AB000FDF72CF82946064B1868FEF7B3F80121CC
:105AC0000448FFF793FE38BD0221E8E70221EEE724
:105AD000F04500208C36002008B5074B1B78074B9B
